{"abi":[{"type":"function","name":"adjudicate","inputs":[{"name":"state","type":"tuple","internalType":"struct Adjudicator.ChannelState","components":[{"name":"channelId","type":"bytes32","internalType":"bytes32"},{"name":"vaultId","type":"uint256","internalType":"uint256"},{"name":"viewer","type":"address","internalType":"address"},{"name":"deposit","type":"uint256","internalType":"uint256"},{"name":"spent","type":"uint256","internalType":"uint256"},{"name":"nonce","type":"uint64","internalType":"uint64"}]},{"name":"signature","type":"bytes","internalType":"bytes"},{"name":"expectedViewer","type":"address","internalType":"address"}],"outputs":[],"stateMutability":"nonpayable"},{"type":"event","name":"DisputeAdjudicated","inputs":[{"name":"channelId","type":"bytes32","indexed":true,"internalType":"bytes32"},{"name":"viewer","type":"address","indexed":true,"internalType":"address"},{"name":"spent","type":"uint256","indexed":false,"internalType":"uint256"},{"name":"nonce","type":"uint64","indexed":false,"internalType":"uint64"},{"name":"valid","type":"bool","indexed":false,"internalType":"bool"}],"anonymous":false},{"type":"error","name":"ECDSAInvalidSignature","inputs":[]},{"type":"error","name":"ECDSAInvalidSignatureLength","inputs":[{"name":"length","type":"uint256","internalType":"uint256"}]},{"type":"error","name":"ECDSAInvalidSignatureS","inputs":[{"name":"s","type":"bytes32","internalType":"bytes32"}]}],"bytecode":{"object":"0x608060405234801561000f575f80fd5b506108a38061001d5f395ff3fe608060405234801561000f575f80fd5b5060043610610029575f3560e01c806358c4b8ee1461002d575b5f80fd5b610047600480360381019061004291906105af565b610049565b005b5f845f013585602001358660400160208101906100669190610621565b876060013588608001358960a00160208101906100839190610689565b60405160200161009896959493929190610702565b6040516020818303038152906040528051906020012090505f6100fe8286868080601f0160208091040260200160405190810160405280939291908181526020018383808284375f81840152601f19601f82011690508083019250505050505050610202565b90505f8373ffffffffffffffffffffffffffffffffffffffff168273ffffffffffffffffffffffffffffffffffffffff16148015610179575086604001602081019061014a9190610621565b73ffffffffffffffffffffffffffffffffffffffff168273ffffffffffffffffffffffffffffffffffffffff16145b905086604001602081019061018e9190610621565b73ffffffffffffffffffffffffffffffffffffffff16875f01357f5ae24a3402e1cb606bb89843b5d14b5abf6a00d4e094c347858e1a6fb60bf24f89608001358a60a00160208101906101e19190610689565b856040516101f19392919061077b565b60405180910390a350505050505050565b5f805f80610210868661022c565b9250925092506102208282610281565b82935050505092915050565b5f805f604184510361026c575f805f602087015192506040870151915060608701515f1a905061025e888285856103e3565b95509550955050505061027a565b5f600285515f1b9250925092505b9250925092565b5f6003811115610294576102936107b0565b5b8260038111156102a7576102a66107b0565b5b03156103df57600160038111156102c1576102c06107b0565b5b8260038111156102d4576102d36107b0565b5b0361030b576040517ff645eedf00000000000000000000000000000000000000000000000000000000815260040160405180910390fd5b6002600381111561031f5761031e6107b0565b5b826003811115610332576103316107b0565b5b0361037657805f1c6040517ffce698f700000000000000000000000000000000000000000000000000000000815260040161036d91906107dd565b60405180910390fd5b600380811115610389576103886107b0565b5b82600381111561039c5761039b6107b0565b5b036103de57806040517fd78bce0c0000000000000000000000000000000000000000000000000000000081526004016103d591906107f6565b60405180910390fd5b5b5050565b5f805f7f7fffffffffffffffffffffffffffffff5d576e7357a4501ddfe92f46681b20a0845f1c111561041f575f6003859250925092506104c0565b5f6001888888886040515f8152602001604052604051610442949392919061082a565b6020604051602081039080840390855afa158015610462573d5f803e3d5ffd5b5050506020604051035190505f73ffffffffffffffffffffffffffffffffffffffff168173ffffffffffffffffffffffffffffffffffffffff16036104b3575f60015f801b935093509350506104c0565b805f805f1b935093509350505b9450945094915050565b5f80fd5b5f80fd5b5f80fd5b5f60c082840312156104eb576104ea6104d2565b5b81905092915050565b5f80fd5b5f80fd5b5f80fd5b5f8083601f840112610515576105146104f4565b5b8235905067ffffffffffffffff811115610532576105316104f8565b5b60208301915083600182028301111561054e5761054d6104fc565b5b9250929050565b5f73ffffffffffffffffffffffffffffffffffffffff82169050919050565b5f61057e82610555565b9050919050565b61058e81610574565b8114610598575f80fd5b50565b5f813590506105a981610585565b92915050565b5f805f8061010085870312156105c8576105c76104ca565b5b5f6105d5878288016104d6565b94505060c085013567ffffffffffffffff8111156105f6576105f56104ce565b5b61060287828801610500565b935093505060e06106158782880161059b565b91505092959194509250565b5f60208284031215610636576106356104ca565b5b5f6106438482850161059b565b91505092915050565b5f67ffffffffffffffff82169050919050565b6106688161064c565b8114610672575f80fd5b50565b5f813590506106838161065f565b92915050565b5f6020828403121561069e5761069d6104ca565b5b5f6106ab84828501610675565b91505092915050565b5f819050919050565b6106c6816106b4565b82525050565b5f819050919050565b6106de816106cc565b82525050565b6106ed81610574565b82525050565b6106fc8161064c565b82525050565b5f60c0820190506107155f8301896106bd565b61072260208301886106d5565b61072f60408301876106e4565b61073c60608301866106d5565b61074960808301856106d5565b61075660a08301846106f3565b979650505050505050565b5f8115159050919050565b61077581610761565b82525050565b5f60608201905061078e5f8301866106d5565b61079b60208301856106f3565b6107a8604083018461076c565b949350505050565b7f4e487b71000000000000000000000000000000000000000000000000000000005f52602160045260245ffd5b5f6020820190506107f05f8301846106d5565b92915050565b5f6020820190506108095f8301846106bd565b92915050565b5f60ff82169050919050565b6108248161080f565b82525050565b5f60808201905061083d5f8301876106bd565b61084a602083018661081b565b61085760408301856106bd565b61086460608301846106bd565b9594505050505056fea2646970667358221220c1bfba6a7f99cb441bd821dc2068cb9d78c1c6ae82f52a60ecf813cf42cab44c64736f6c63430008180033","linkReferences":{}},"methodIdentifiers":{"adjudicate((bytes32,uint256,address,uint256,uint256,uint64),bytes,address)":"58c4b8ee"},"id":44}