{"abi":[{"type":"constructor","inputs":[{"name":"_vault","type":"address","internalType":"contract Nitrolite"}],"stateMutability":"nonpayable"},{"type":"receive","stateMutability":"payable"},{"type":"function","name":"channels","inputs":[{"name":"","type":"bytes32","internalType":"bytes32"}],"outputs":[{"name":"viewer","type":"address","internalType":"address"},{"name":"vaultId","type":"uint256","internalType":"uint256"},{"name":"deposit","type":"uint256","internalType":"uint256"},{"name":"spent","type":"uint256","internalType":"uint256"},{"name":"closed","type":"bool","internalType":"bool"}],"stateMutability":"view"},{"type":"function","name":"closeChannel","inputs":[{"name":"channelId","type":"bytes32","internalType":"bytes32"},{"name":"spent","type":"uint256","internalType":"uint256"}],"outputs":[],"stateMutability":"nonpayable"},{"type":"function","name":"computeChannelId","inputs":[{"name":"viewer","type":"address","internalType":"address"},{"name":"streamIdHash","type":"bytes32","internalType":"bytes32"},{"name":"vaultId","type":"uint256","internalType":"uint256"}],"outputs":[{"name":"","type":"bytes32","internalType":"bytes32"}],"stateMutability":"pure"},{"type":"function","name":"openChannel","inputs":[{"name":"viewer","type":"address","internalType":"address"},{"name":"streamIdHash","type":"bytes32","internalType":"bytes32"},{"name":"vaultId","type":"uint256","internalType":"uint256"}],"outputs":[{"name":"channelId","type":"bytes32","internalType":"bytes32"}],"stateMutability":"payable"},{"type":"function","name":"vault","inputs":[],"outputs":[{"name":"","type":"address","internalType":"contract Nitrolite"}],"stateMutability":"view"},{"type":"event","name":"ChannelClosed","inputs":[{"name":"channelId","type":"bytes32","indexed":true,"internalType":"bytes32"},{"name":"spent","type":"uint256","indexed":false,"internalType":"uint256"},{"name":"settler","type":"address","indexed":false,"internalType":"address"}],"anonymous":false},{"type":"event","name":"ChannelOpened","inputs":[{"name":"channelId","type":"bytes32","indexed":true,"internalType":"bytes32"},{"name":"viewer","type":"address","indexed":true,"internalType":"address"},{"name":"vaultId","type":"uint256","indexed":true,"internalType":"uint256"},{"name":"deposit","type":"uint256","indexed":false,"internalType":"uint256"}],"anonymous":false}],"bytecode":{"object":"0x60a060405234801561000f575f80fd5b5060405162000ec038038062000ec0833981810160405281019061003391906100dc565b8073ffffffffffffffffffffffffffffffffffffffff1660808173ffffffffffffffffffffffffffffffffffffffff168152505050610107565b5f80fd5b5f73ffffffffffffffffffffffffffffffffffffffff82169050919050565b5f61009a82610071565b9050919050565b5f6100ab82610090565b9050919050565b6100bb816100a1565b81146100c5575f80fd5b50565b5f815190506100d6816100b2565b92915050565b5f602082840312156100f1576100f061006d565b5b5f6100fe848285016100c8565b91505092915050565b608051610d926200012e5f395f818161045f0152818161049701526106950152610d925ff3fe60806040526004361061004d575f3560e01c806314f6584c146100585780632df3ad9c146100885780637a7ebd7b146100b05780639ffe68f6146100f0578063fbfa77cf1461012c57610054565b3661005457005b5f80fd5b610072600480360381019061006d919061077b565b610156565b60405161007f91906107da565b60405180910390f35b348015610093575f80fd5b506100ae60048036038101906100a991906107f3565b6102f4565b005b3480156100bb575f80fd5b506100d660048036038101906100d19190610831565b610602565b6040516100e7959493929190610894565b60405180910390f35b3480156100fb575f80fd5b506101166004803603810190610111919061077b565b61065e565b60405161012391906107da565b60405180910390f35b348015610137575f80fd5b50610140610693565b60405161014d9190610940565b60405180910390f35b5f803411610199576040517f08c379a0000000000000000000000000000000000000000000000000000000008152600401610190906109b3565b60405180910390fd5b6101a484848461065e565b90505f805f8381526020019081526020015f2090505f73ffffffffffffffffffffffffffffffffffffffff16815f015f9054906101000a900473ffffffffffffffffffffffffffffffffffffffff1673ffffffffffffffffffffffffffffffffffffffff1614610249576040517f08c379a000000000000000000000000000000000000000000000000000000000815260040161024090610a1b565b60405180910390fd5b84815f015f6101000a81548173ffffffffffffffffffffffffffffffffffffffff021916908373ffffffffffffffffffffffffffffffffffffffff160217905550828160010181905550348160020181905550828573ffffffffffffffffffffffffffffffffffffffff16837f97c1b6d4770f0dd9f0f7e1e4795f85665827530be75363fc0fcf63873294d9c2346040516102e49190610a39565b60405180910390a4509392505050565b5f805f8481526020019081526020015f2090505f73ffffffffffffffffffffffffffffffffffffffff16815f015f9054906101000a900473ffffffffffffffffffffffffffffffffffffffff1673ffffffffffffffffffffffffffffffffffffffff1603610397576040517f08c379a000000000000000000000000000000000000000000000000000000000815260040161038e90610a9c565b60405180910390fd5b806004015f9054906101000a900460ff16156103e8576040517f08c379a00000000000000000000000000000000000000000000000000000000081526004016103df90610b04565b60405180910390fd5b806002015482111561042f576040517f08c379a000000000000000000000000000000000000000000000000000000000815260040161042690610b6c565b60405180910390fd5b6001816004015f6101000a81548160ff0219169083151502179055508181600301819055505f8211156105c3575f7f000000000000000000000000000000000000000000000000000000000000000073ffffffffffffffffffffffffffffffffffffffff16837f00000000000000000000000000000000000000000000000000000000000000005063b6b55f2560e01b84600101546040516024016104d49190610a39565b604051602081830303815290604052907bffffffffffffffffffffffffffffffffffffffffffffffffffffffff19166020820180517bffffffffffffffffffffffffffffffffffffffffffffffffffffffff838183161783525050505060405161053e9190610bf6565b5f6040518083038185875af1925050503d805f8114610578576040519150601f19603f3d011682016040523d82523d5f602084013e61057d565b606091505b50509050806105c1576040517f08c379a00000000000000000000000000000000000000000000000000000000081526004016105b890610c56565b60405180910390fd5b505b827fd1fda858f2e26dc80fae503bfa41bd1d264260b331256f54c863b269516acf8883336040516105f5929190610c74565b60405180910390a2505050565b5f602052805f5260405f205f91509050805f015f9054906101000a900473ffffffffffffffffffffffffffffffffffffffff1690806001015490806002015490806003015490806004015f9054906101000a900460ff16905085565b5f83838360405160200161067493929190610d20565b6040516020818303038152906040528051906020012090509392505050565b7f000000000000000000000000000000000000000000000000000000000000000081565b5f80fd5b5f73ffffffffffffffffffffffffffffffffffffffff82169050919050565b5f6106e4826106bb565b9050919050565b6106f4816106da565b81146106fe575f80fd5b50565b5f8135905061070f816106eb565b92915050565b5f819050919050565b61072781610715565b8114610731575f80fd5b50565b5f813590506107428161071e565b92915050565b5f819050919050565b61075a81610748565b8114610764575f80fd5b50565b5f8135905061077581610751565b92915050565b5f805f60608486031215610792576107916106b7565b5b5f61079f86828701610701565b93505060206107b086828701610734565b92505060406107c186828701610767565b9150509250925092565b6107d481610715565b82525050565b5f6020820190506107ed5f8301846107cb565b92915050565b5f8060408385031215610809576108086106b7565b5b5f61081685828601610734565b925050602061082785828601610767565b9150509250929050565b5f60208284031215610846576108456106b7565b5b5f61085384828501610734565b91505092915050565b610865816106da565b82525050565b61087481610748565b82525050565b5f8115159050919050565b61088e8161087a565b82525050565b5f60a0820190506108a75f83018861085c565b6108b4602083018761086b565b6108c1604083018661086b565b6108ce606083018561086b565b6108db6080830184610885565b9695505050505050565b5f819050919050565b5f6109086109036108fe846106bb565b6108e5565b6106bb565b9050919050565b5f610919826108ee565b9050919050565b5f61092a8261090f565b9050919050565b61093a81610920565b82525050565b5f6020820190506109535f830184610931565b92915050565b5f82825260208201905092915050565b7f6465706f736974207265717569726564000000000000000000000000000000005f82015250565b5f61099d601083610959565b91506109a882610969565b602082019050919050565b5f6020820190508181035f8301526109ca81610991565b9050919050565b7f65786973747300000000000000000000000000000000000000000000000000005f82015250565b5f610a05600683610959565b9150610a10826109d1565b602082019050919050565b5f6020820190508181035f830152610a32816109f9565b9050919050565b5f602082019050610a4c5f83018461086b565b92915050565b7f6e6f7420666f756e6400000000000000000000000000000000000000000000005f82015250565b5f610a86600983610959565b9150610a9182610a52565b602082019050919050565b5f6020820190508181035f830152610ab381610a7a565b9050919050565b7f636c6f73656400000000000000000000000000000000000000000000000000005f82015250565b5f610aee600683610959565b9150610af982610aba565b602082019050919050565b5f6020820190508181035f830152610b1b81610ae2565b9050919050565b7f65786365656473000000000000000000000000000000000000000000000000005f82015250565b5f610b56600783610959565b9150610b6182610b22565b602082019050919050565b5f6020820190508181035f830152610b8381610b4a565b9050919050565b5f81519050919050565b5f81905092915050565b5f5b83811015610bbb578082015181840152602081019050610ba0565b5f8484015250505050565b5f610bd082610b8a565b610bda8185610b94565b9350610bea818560208601610b9e565b80840191505092915050565b5f610c018284610bc6565b915081905092915050565b7f736574746c65206661696c6564000000000000000000000000000000000000005f82015250565b5f610c40600d83610959565b9150610c4b82610c0c565b602082019050919050565b5f6020820190508181035f830152610c6d81610c34565b9050919050565b5f604082019050610c875f83018561086b565b610c94602083018461085c565b9392505050565b5f8160601b9050919050565b5f610cb182610c9b565b9050919050565b5f610cc282610ca7565b9050919050565b610cda610cd5826106da565b610cb8565b82525050565b5f819050919050565b610cfa610cf582610715565b610ce0565b82525050565b5f819050919050565b610d1a610d1582610748565b610d00565b82525050565b5f610d2b8286610cc9565b601482019150610d3b8285610ce9565b602082019150610d4b8284610d09565b60208201915081905094935050505056fea2646970667358221220e5bde004d4d39ebab3c7df0495ab0db376aa2ea31e2761852d670a941944d87964736f6c63430008180033","linkReferences":{}},"methodIdentifiers":{"channels(bytes32)":"7a7ebd7b","closeChannel(bytes32,uint256)":"2df3ad9c","computeChannelId(address,bytes32,uint256)":"9ffe68f6","openChannel(address,bytes32,uint256)":"14f6584c","vault()":"fbfa77cf"},"id":45}