{"abi":[{"type":"constructor","inputs":[{"name":"name_","type":"string","internalType":"string"},{"name":"symbol_","type":"string","internalType":"string"}],"stateMutability":"nonpayable"},{"type":"function","name":"SALT","inputs":[],"outputs":[{"name":"","type":"bytes32","internalType":"bytes32"}],"stateMutability":"view"},{"type":"function","name":"VERSION","inputs":[],"outputs":[{"name":"","type":"string","internalType":"string"}],"stateMutability":"view"},{"type":"function","name":"WITHDRAW_TYPEHASH","inputs":[],"outputs":[{"name":"","type":"bytes32","internalType":"bytes32"}],"stateMutability":"view"},{"type":"function","name":"approve","inputs":[{"name":"to","type":"address","internalType":"address"},{"name":"tokenId","type":"uint256","internalType":"uint256"}],"outputs":[],"stateMutability":"nonpayable"},{"type":"function","name":"balanceOf","inputs":[{"name":"owner","type":"address","internalType":"address"}],"outputs":[{"name":"","type":"uint256","internalType":"uint256"}],"stateMutability":"view"},{"type":"function","name":"balanceOfVault","inputs":[{"name":"vaultId","type":"uint256","internalType":"uint256"}],"outputs":[{"name":"","type":"uint256","internalType":"uint256"}],"stateMutability":"view"},{"type":"function","name":"createVault","inputs":[{"name":"owner","type":"address","internalType":"address"}],"outputs":[{"name":"","type":"uint256","internalType":"uint256"}],"stateMutability":"nonpayable"},{"type":"function","name":"deposit","inputs":[{"name":"vaultId","type":"uint256","internalType":"uint256"}],"outputs":[],"stateMutability":"payable"},{"type":"function","name":"eip712Domain","inputs":[],"outputs":[{"name":"fields","type":"bytes1","internalType":"bytes1"},{"name":"name","type":"string","internalType":"string"},{"name":"version","type":"string","internalType":"string"},{"name":"chainId","type":"uint256","internalType":"uint256"},{"name":"verifyingContract","type":"address","internalType":"address"},{"name":"salt","type":"bytes32","internalType":"bytes32"},{"name":"extensions","type":"uint256[]","internalType":"uint256[]"}],"stateMutability":"view"},{"type":"function","name":"getApproved","inputs":[{"name":"tokenId","type":"uint256","internalType":"uint256"}],"outputs":[{"name":"","type":"address","internalType":"address"}],"stateMutability":"view"},{"type":"function","name":"isApprovedForAll","inputs":[{"name":"owner","type":"address","internalType":"address"},{"name":"operator","type":"address","internalType":"address"}],"outputs":[{"name":"","type":"bool","internalType":"bool"}],"stateMutability":"view"},{"type":"function","name":"name","inputs":[],"outputs":[{"name":"","type":"string","internalType":"string"}],"stateMutability":"view"},{"type":"function","name":"nonces","inputs":[{"name":"vaultId","type":"uint256","internalType":"uint256"}],"outputs":[{"name":"nonce","type":"uint64","internalType":"uint64"}],"stateMutability":"view"},{"type":"function","name":"ownerOf","inputs":[{"name":"vaultId","type":"uint256","internalType":"uint256"}],"outputs":[{"name":"","type":"address","internalType":"address"}],"stateMutability":"view"},{"type":"function","name":"safeTransferFrom","inputs":[{"name":"from","type":"address","internalType":"address"},{"name":"to","type":"address","internalType":"address"},{"name":"tokenId","type":"uint256","internalType":"uint256"}],"outputs":[],"stateMutability":"nonpayable"},{"type":"function","name":"safeTransferFrom","inputs":[{"name":"from","type":"address","internalType":"address"},{"name":"to","type":"address","internalType":"address"},{"name":"tokenId","type":"uint256","internalType":"uint256"},{"name":"data","type":"bytes","internalType":"bytes"}],"outputs":[],"stateMutability":"nonpayable"},{"type":"function","name":"setApprovalForAll","inputs":[{"name":"operator","type":"address","internalType":"address"},{"name":"approved","type":"bool","internalType":"bool"}],"outputs":[],"stateMutability":"nonpayable"},{"type":"function","name":"supportsInterface","inputs":[{"name":"interfaceId","type":"bytes4","internalType":"bytes4"}],"outputs":[{"name":"","type":"bool","internalType":"bool"}],"stateMutability":"view"},{"type":"function","name":"symbol","inputs":[],"outputs":[{"name":"","type":"string","internalType":"string"}],"stateMutability":"view"},{"type":"function","name":"tokenURI","inputs":[{"name":"tokenId","type":"uint256","internalType":"uint256"}],"outputs":[{"name":"","type":"string","internalType":"string"}],"stateMutability":"view"},{"type":"function","name":"transferFrom","inputs":[{"name":"from","type":"address","internalType":"address"},{"name":"to","type":"address","internalType":"address"},{"name":"tokenId","type":"uint256","internalType":"uint256"}],"outputs":[],"stateMutability":"nonpayable"},{"type":"function","name":"withdraw","inputs":[{"name":"vaultId","type":"uint256","internalType":"uint256"},{"name":"receiver","type":"address","internalType":"address"},{"name":"amount","type":"uint96","internalType":"uint96"}],"outputs":[],"stateMutability":"nonpayable"},{"type":"function","name":"withdrawWithSignature","inputs":[{"name":"vaultId","type":"uint256","internalType":"uint256"},{"name":"receiver","type":"address","internalType":"address"},{"name":"amount","type":"uint96","internalType":"uint96"},{"name":"signature","type":"bytes","internalType":"bytes"}],"outputs":[],"stateMutability":"nonpayable"},{"type":"event","name":"Approval","inputs":[{"name":"owner","type":"address","indexed":true,"internalType":"address"},{"name":"approved","type":"address","indexed":true,"internalType":"address"},{"name":"tokenId","type":"uint256","indexed":true,"internalType":"uint256"}],"anonymous":false},{"type":"event","name":"ApprovalForAll","inputs":[{"name":"owner","type":"address","indexed":true,"internalType":"address"},{"name":"operator","type":"address","indexed":true,"internalType":"address"},{"name":"approved","type":"bool","indexed":false,"internalType":"bool"}],"anonymous":false},{"type":"event","name":"Deposit","inputs":[{"name":"vaultId","type":"uint256","indexed":true,"internalType":"uint256"},{"name":"sender","type":"address","indexed":true,"internalType":"address"},{"name":"amount","type":"uint256","indexed":false,"internalType":"uint256"}],"anonymous":false},{"type":"event","name":"EIP712DomainChanged","inputs":[],"anonymous":false},{"type":"event","name":"Transfer","inputs":[{"name":"from","type":"address","indexed":true,"internalType":"address"},{"name":"to","type":"address","indexed":true,"internalType":"address"},{"name":"tokenId","type":"uint256","indexed":true,"internalType":"uint256"}],"anonymous":false},{"type":"event","name":"VaultCreated","inputs":[{"name":"vaultId","type":"uint256","indexed":true,"internalType":"uint256"},{"name":"owner","type":"address","indexed":true,"internalType":"address"}],"anonymous":false},{"type":"event","name":"Withdraw","inputs":[{"name":"vaultId","type":"uint256","indexed":true,"internalType":"uint256"},{"name":"receiver","type":"address","indexed":true,"internalType":"address"},{"name":"owner","type":"address","indexed":true,"internalType":"address"},{"name":"amount","type":"uint256","indexed":false,"internalType":"uint256"}],"anonymous":false},{"type":"error","name":"ECDSAInvalidSignature","inputs":[]},{"type":"error","name":"ECDSAInvalidSignatureLength","inputs":[{"name":"length","type":"uint256","internalType":"uint256"}]},{"type":"error","name":"ECDSAInvalidSignatureS","inputs":[{"name":"s","type":"bytes32","internalType":"bytes32"}]},{"type":"error","name":"ERC721IncorrectOwner","inputs":[{"name":"sender","type":"address","internalType":"address"},{"name":"tokenId","type":"uint256","internalType":"uint256"},{"name":"owner","type":"address","internalType":"address"}]},{"type":"error","name":"ERC721InsufficientApproval","inputs":[{"name":"operator","type":"address","internalType":"address"},{"name":"tokenId","type":"uint256","internalType":"uint256"}]},{"type":"error","name":"ERC721InvalidApprover","inputs":[{"name":"approver","type":"address","internalType":"address"}]},{"type":"error","name":"ERC721InvalidOperator","inputs":[{"name":"operator","type":"address","internalType":"address"}]},{"type":"error","name":"ERC721InvalidOwner","inputs":[{"name":"owner","type":"address","internalType":"address"}]},{"type":"error","name":"ERC721InvalidReceiver","inputs":[{"name":"receiver","type":"address","internalType":"address"}]},{"type":"error","name":"ERC721InvalidSender","inputs":[{"name":"sender","type":"address","internalType":"address"}]},{"type":"error","name":"ERC721NonexistentToken","inputs":[{"name":"tokenId","type":"uint256","internalType":"uint256"}]},{"type":"error","name":"InvalidShortString","inputs":[]},{"type":"error","name":"SafeCastOverflowedUintDowncast","inputs":[{"name":"bits","type":"uint8","internalType":"uint8"},{"name":"value","type":"uint256","internalType":"uint256"}]},{"type":"error","name":"StringTooLong","inputs":[{"name":"str","type":"string","internalType":"string"}]}],"bytecode":{"object":"0x610160604052348015610010575f5ffd5b50604051614295380380614295833981810160405281019061003291906103ba565b816040518060400160405280600181526020017f31000000000000000000000000000000000000000000000000000000000000008152508383815f90816100799190610640565b5080600190816100899190610640565b5050506100a060068361015860201b90919060201c565b61012081815250506100bc60078261015860201b90919060201c565b6101408181525050818051906020012060e08181525050808051906020012061010081815250504660a081815250506100f96101a560201b60201c565b608081815250503073ffffffffffffffffffffffffffffffffffffffff1660c08173ffffffffffffffffffffffffffffffffffffffff16815250505050600860018160018154018082558091505003905f5260205f20505050506108c1565b5f60208351101561017957610172836101ff60201b60201c565b905061019f565b826101898361026460201b60201c565b5f0190816101979190610640565b5060ff5f1b90505b92915050565b5f7f8b73c3c69bb8fe3d512ecc4cf759cc79239f7b179b0ffacaa9a75d522b39400f60e0516101005146306040516020016101e4959493929190610775565b60405160208183030381529060405280519060200120905090565b5f5f829050601f8151111561024b57826040517f305a27a9000000000000000000000000000000000000000000000000000000008152600401610242919061080e565b60405180910390fd5b8051816102579061085b565b5f1c175f1b915050919050565b5f819050919050565b5f604051905090565b5f5ffd5b5f5ffd5b5f5ffd5b5f5ffd5b5f601f19601f8301169050919050565b7f4e487b71000000000000000000000000000000000000000000000000000000005f52604160045260245ffd5b6102cc82610286565b810181811067ffffffffffffffff821117156102eb576102ea610296565b5b80604052505050565b5f6102fd61026d565b905061030982826102c3565b919050565b5f67ffffffffffffffff82111561032857610327610296565b5b61033182610286565b9050602081019050919050565b8281835e5f83830152505050565b5f61035e6103598461030e565b6102f4565b90508281526020810184848401111561037a57610379610282565b5b61038584828561033e565b509392505050565b5f82601f8301126103a1576103a061027e565b5b81516103b184826020860161034c565b91505092915050565b5f5f604083850312156103d0576103cf610276565b5b5f83015167ffffffffffffffff8111156103ed576103ec61027a565b5b6103f98582860161038d565b925050602083015167ffffffffffffffff81111561041a5761041961027a565b5b6104268582860161038d565b9150509250929050565b5f81519050919050565b7f4e487b71000000000000000000000000000000000000000000000000000000005f52602260045260245ffd5b5f600282049050600182168061047e57607f821691505b6020821081036104915761049061043a565b5b50919050565b5f819050815f5260205f209050919050565b5f6020601f8301049050919050565b5f82821b905092915050565b5f600883026104f37fffffffffffffffffffffffffffffffffffffffffffffffffffffffffffffffff826104b8565b6104fd86836104b8565b95508019841693508086168417925050509392505050565b5f819050919050565b5f819050919050565b5f61054161053c61053784610515565b61051e565b610515565b9050919050565b5f819050919050565b61055a83610527565b61056e61056682610548565b8484546104c4565b825550505050565b5f5f905090565b610585610576565b610590818484610551565b505050565b5b818110156105b3576105a85f8261057d565b600181019050610596565b5050565b601f8211156105f8576105c981610497565b6105d2846104a9565b810160208510156105e1578190505b6105f56105ed856104a9565b830182610595565b50505b505050565b5f82821c905092915050565b5f6106185f19846008026105fd565b1980831691505092915050565b5f6106308383610609565b9150826002028217905092915050565b61064982610430565b67ffffffffffffffff81111561066257610661610296565b5b61066c8254610467565b6106778282856105b7565b5f60209050601f8311600181146106a8575f8415610696578287015190505b6106a08582610625565b865550610707565b601f1984166106b686610497565b5f5b828110156106dd578489015182556001820191506020850194506020810190506106b8565b868310156106fa57848901516106f6601f891682610609565b8355505b6001600288020188555050505b505050505050565b5f819050919050565b6107218161070f565b82525050565b61073081610515565b82525050565b5f73ffffffffffffffffffffffffffffffffffffffff82169050919050565b5f61075f82610736565b9050919050565b61076f81610755565b82525050565b5f60a0820190506107885f830188610718565b6107956020830187610718565b6107a26040830186610718565b6107af6060830185610727565b6107bc6080830184610766565b9695505050505050565b5f82825260208201905092915050565b5f6107e082610430565b6107ea81856107c6565b93506107fa81856020860161033e565b61080381610286565b840191505092915050565b5f6020820190508181035f83015261082681846107d6565b905092915050565b5f81519050919050565b5f819050602082019050919050565b5f610852825161070f565b80915050919050565b5f6108658261082e565b8261086f84610838565b905061087a81610847565b925060208210156108ba576108b57fffffffffffffffffffffffffffffffffffffffffffffffffffffffffffffffff836020036008026104b8565b831692505b5050919050565b60805160a05160c05160e0516101005161012051610140516139836109125f395f61185b01525f61182001525f6128ab01525f61288a01525f61263e01525f61269401525f6126bd01526139835ff3fe60806040526004361061013f575f3560e01c806395d89b41116100b5578063ba9a91a51161006e578063ba9a91a514610465578063c87b56dd1461048f578063e2e91a43146104cb578063e985e9c5146104f3578063f741e56f1461052f578063ffa1ad741461056b5761013f565b806395d89b411461036b578063a22cb46514610395578063a93ee5ae146103bd578063b4bd6f46146103e5578063b6b55f2514610421578063b88d4fde1461043d5761013f565b806323b872dd1161010757806323b872dd1461024957806342842e0e146102715780636352211e1461029957806370a08231146102d557806376c5d7581461031157806384b0196e1461033b5761013f565b806301ffc9a71461014357806306fdde031461017f578063081812fc146101a9578063095ea7b3146101e5578063141a468c1461020d575b5f5ffd5b34801561014e575f5ffd5b5061016960048036038101906101649190612961565b610595565b60405161017691906129a6565b60405180910390f35b34801561018a575f5ffd5b50610193610676565b6040516101a09190612a2f565b60405180910390f35b3480156101b4575f5ffd5b506101cf60048036038101906101ca9190612a82565b610705565b6040516101dc9190612aec565b60405180910390f35b3480156101f0575f5ffd5b5061020b60048036038101906102069190612b2f565b610720565b005b348015610218575f5ffd5b50610233600480360381019061022e9190612a82565b610736565b6040516102409190612b8f565b60405180910390f35b348015610254575f5ffd5b5061026f600480360381019061026a9190612ba8565b61075a565b005b34801561027c575f5ffd5b5061029760048036038101906102929190612ba8565b610859565b005b3480156102a4575f5ffd5b506102bf60048036038101906102ba9190612a82565b610878565b6040516102cc9190612aec565b60405180910390f35b3480156102e0575f5ffd5b506102fb60048036038101906102f69190612bf8565b6108be565b6040516103089190612c32565b60405180910390f35b34801561031c575f5ffd5b50610325610974565b6040516103329190612c63565b60405180910390f35b348015610346575f5ffd5b5061034f610998565b6040516103629796959493929190612d6d565b60405180910390f35b348015610376575f5ffd5b5061037f610a3d565b60405161038c9190612a2f565b60405180910390f35b3480156103a0575f5ffd5b506103bb60048036038101906103b69190612e19565b610acd565b005b3480156103c8575f5ffd5b506103e360048036038101906103de9190612e98565b610ae3565b005b3480156103f0575f5ffd5b5061040b60048036038101906104069190612bf8565b610d73565b6040516104189190612c32565b60405180910390f35b61043b60048036038101906104369190612a82565b610ead565b005b348015610448575f5ffd5b50610463600480360381019061045e9190613014565b610fbc565b005b348015610470575f5ffd5b50610479610fe1565b6040516104869190612c63565b60405180910390f35b34801561049a575f5ffd5b506104b560048036038101906104b09190612a82565b611005565b6040516104c29190612a2f565b60405180910390f35b3480156104d6575f5ffd5b506104f160048036038101906104ec91906130f1565b61106b565b005b3480156104fe575f5ffd5b5061051960048036038101906105149190613175565b6113b7565b60405161052691906129a6565b60405180910390f35b34801561053a575f5ffd5b5061055560048036038101906105509190612a82565b611445565b6040516105629190612c32565b60405180910390f35b348015610576575f5ffd5b5061057f611492565b60405161058c9190612a2f565b60405180910390f35b5f7f80ac58cd000000000000000000000000000000000000000000000000000000007bffffffffffffffffffffffffffffffffffffffffffffffffffffffff1916827bffffffffffffffffffffffffffffffffffffffffffffffffffffffff1916148061065f57507f5b5e139f000000000000000000000000000000000000000000000000000000007bffffffffffffffffffffffffffffffffffffffffffffffffffffffff1916827bffffffffffffffffffffffffffffffffffffffffffffffffffffffff1916145b8061066f575061066e826114cb565b5b9050919050565b60605f8054610684906131e0565b80601f01602080910402602001604051908101604052809291908181526020018280546106b0906131e0565b80156106fb5780601f106106d2576101008083540402835291602001916106fb565b820191905f5260205f20905b8154815290600101906020018083116106de57829003601f168201915b5050505050905090565b5f61070f82611534565b50610719826115ba565b9050919050565b610732828261072d6115f3565b6115fa565b5050565b6009602052805f5260405f205f915054906101000a900467ffffffffffffffff1681565b5f73ffffffffffffffffffffffffffffffffffffffff168273ffffffffffffffffffffffffffffffffffffffff16036107ca575f6040517f64a0ae920000000000000000000000000000000000000000000000000000000081526004016107c19190612aec565b60405180910390fd5b5f6107dd83836107d86115f3565b61160c565b90508373ffffffffffffffffffffffffffffffffffffffff168173ffffffffffffffffffffffffffffffffffffffff1614610853578382826040517f64283d7b00000000000000000000000000000000000000000000000000000000815260040161084a93929190613210565b60405180910390fd5b50505050565b61087383838360405180602001604052805f815250610fbc565b505050565b5f6008828154811061088d5761088c613245565b5b905f5260205f20015f015f9054906101000a900473ffffffffffffffffffffffffffffffffffffffff169050919050565b5f5f73ffffffffffffffffffffffffffffffffffffffff168273ffffffffffffffffffffffffffffffffffffffff160361092f575f6040517f89c62b640000000000000000000000000000000000000000000000000000000081526004016109269190612aec565b60405180910390fd5b60035f8373ffffffffffffffffffffffffffffffffffffffff1673ffffffffffffffffffffffffffffffffffffffff1681526020019081526020015f20549050919050565b7f2b682ee12a1c1f24bd352f1f0a5a701db37fcf7a4d23365a640e4b0aeadf0c4181565b5f6060805f5f5f60606109a9611817565b6109b1611852565b46305f5f1b5f67ffffffffffffffff8111156109d0576109cf612ef0565b5b6040519080825280602002602001820160405280156109fe5781602001602082028036833780820191505090505b507f0f00000000000000000000000000000000000000000000000000000000000000959493929190965096509650965096509650965090919293949596565b606060018054610a4c906131e0565b80601f0160208091040260200160405190810160405280929190818152602001828054610a78906131e0565b8015610ac35780601f10610a9a57610100808354040283529160200191610ac3565b820191905f5260205f20905b815481529060010190602001808311610aa657829003601f168201915b5050505050905090565b610adf610ad86115f3565b838361188d565b5050565b60088381548110610af757610af6613245565b5b905f5260205f20015f015f9054906101000a900473ffffffffffffffffffffffffffffffffffffffff1673ffffffffffffffffffffffffffffffffffffffff163373ffffffffffffffffffffffffffffffffffffffff1614610b8e576040517f08c379a0000000000000000000000000000000000000000000000000000000008152600401610b85906132bc565b60405180910390fd5b5f816bffffffffffffffffffffffff1603610bde576040517f08c379a0000000000000000000000000000000000000000000000000000000008152600401610bd59061334a565b60405180910390fd5b8060088481548110610bf357610bf2613245565b5b905f5260205f20015f0160148282829054906101000a90046bffffffffffffffffffffffff16610c239190613395565b92506101000a8154816bffffffffffffffffffffffff02191690836bffffffffffffffffffffffff1602179055503373ffffffffffffffffffffffffffffffffffffffff168273ffffffffffffffffffffffffffffffffffffffff16847ffeb2000dca3e617cd6f3a8bbb63014bb54a124aac6ccbf73ee7229b4cd01f12084604051610caf919061340d565b60405180910390a45f8273ffffffffffffffffffffffffffffffffffffffff16826bffffffffffffffffffffffff16604051610cea90613453565b5f6040518083038185875af1925050503d805f8114610d24576040519150601f19603f3d011682016040523d82523d5f602084013e610d29565b606091505b5050905080610d6d576040517f08c379a0000000000000000000000000000000000000000000000000000000008152600401610d64906134b1565b60405180910390fd5b50505050565b5f5f6008805490509050600860405180604001604052808573ffffffffffffffffffffffffffffffffffffffff1681526020015f6bffffffffffffffffffffffff16815250908060018154018082558091505060019003905f5260205f20015f909190919091505f820151815f015f6101000a81548173ffffffffffffffffffffffffffffffffffffffff021916908373ffffffffffffffffffffffffffffffffffffffff1602179055506020820151815f0160146101000a8154816bffffffffffffffffffffffff02191690836bffffffffffffffffffffffff1602179055505050610e6083826119f6565b8273ffffffffffffffffffffffffffffffffffffffff16817fbf3e9c93de94306b70ac5b9411edf475545815333bf651b894b9eada6482c59460405160405180910390a380915050919050565b5f3403610eef576040517f08c379a0000000000000000000000000000000000000000000000000000000008152600401610ee69061353f565b60405180910390fd5b610ef834611ae9565b60088281548110610f0c57610f0b613245565b5b905f5260205f20015f0160148282829054906101000a90046bffffffffffffffffffffffff16610f3c919061355d565b92506101000a8154816bffffffffffffffffffffffff02191690836bffffffffffffffffffffffff1602179055503373ffffffffffffffffffffffffffffffffffffffff16817feaa18152488ce5959073c9c79c88ca90b3d96c00de1f118cfaad664c3dab06b934604051610fb19190612c32565b60405180910390a350565b610fc784848461075a565b610fdb610fd26115f3565b85858585611b48565b50505050565b7fcd6b0bebce481dbbe644b9aef53d843ed9bbfe98080202e1f3e1bd9d8761e00481565b606061101082611534565b505f61101a611cf4565b90505f8151116110385760405180602001604052805f815250611063565b8061104284611d0a565b6040516020016110539291906135d6565b6040516020818303038152906040525b915050919050565b5f836bffffffffffffffffffffffff16036110bb576040517f08c379a00000000000000000000000000000000000000000000000000000000081526004016110b29061334a565b60405180910390fd5b5f6110c68685611dd4565b90505f6111168285858080601f0160208091040260200160405190810160405280939291908181526020018383808284375f81840152601f19601f82011690508083019250505050505050611e56565b90506008878154811061112c5761112b613245565b5b905f5260205f20015f015f9054906101000a900473ffffffffffffffffffffffffffffffffffffffff1673ffffffffffffffffffffffffffffffffffffffff168173ffffffffffffffffffffffffffffffffffffffff16146111c3576040517f08c379a00000000000000000000000000000000000000000000000000000000081526004016111ba90613643565b60405180910390fd5b60095f8881526020019081526020015f205f81819054906101000a900467ffffffffffffffff16809291906111f790613661565b91906101000a81548167ffffffffffffffff021916908367ffffffffffffffff16021790555050846008888154811061123357611232613245565b5b905f5260205f20015f0160148282829054906101000a90046bffffffffffffffffffffffff166112639190613395565b92506101000a8154816bffffffffffffffffffffffff02191690836bffffffffffffffffffffffff1602179055508073ffffffffffffffffffffffffffffffffffffffff168673ffffffffffffffffffffffffffffffffffffffff16887ffeb2000dca3e617cd6f3a8bbb63014bb54a124aac6ccbf73ee7229b4cd01f120886040516112ef919061340d565b60405180910390a45f8673ffffffffffffffffffffffffffffffffffffffff16866bffffffffffffffffffffffff1660405161132a90613453565b5f6040518083038185875af1925050503d805f8114611364576040519150601f19603f3d011682016040523d82523d5f602084013e611369565b606091505b50509050806113ad576040517f08c379a00000000000000000000000000000000000000000000000000000000081526004016113a4906134b1565b60405180910390fd5b5050505050505050565b5f60055f8473ffffffffffffffffffffffffffffffffffffffff1673ffffffffffffffffffffffffffffffffffffffff1681526020019081526020015f205f8373ffffffffffffffffffffffffffffffffffffffff1673ffffffffffffffffffffffffffffffffffffffff1681526020019081526020015f205f9054906101000a900460ff16905092915050565b5f6008828154811061145a57611459613245565b5b905f5260205f20015f0160149054906101000a90046bffffffffffffffffffffffff166bffffffffffffffffffffffff169050919050565b6040518060400160405280600181526020017f310000000000000000000000000000000000000000000000000000000000000081525081565b5f7f01ffc9a7000000000000000000000000000000000000000000000000000000007bffffffffffffffffffffffffffffffffffffffffffffffffffffffff1916827bffffffffffffffffffffffffffffffffffffffffffffffffffffffff1916149050919050565b5f5f61153f83611e80565b90505f73ffffffffffffffffffffffffffffffffffffffff168173ffffffffffffffffffffffffffffffffffffffff16036115b157826040517f7e2732890000000000000000000000000000000000000000000000000000000081526004016115a89190612c32565b60405180910390fd5b80915050919050565b5f60045f8381526020019081526020015f205f9054906101000a900473ffffffffffffffffffffffffffffffffffffffff169050919050565b5f33905090565b6116078383836001611eb9565b505050565b5f5f61161784611e80565b90505f73ffffffffffffffffffffffffffffffffffffffff168373ffffffffffffffffffffffffffffffffffffffff161461165857611657818486612078565b5b5f73ffffffffffffffffffffffffffffffffffffffff168173ffffffffffffffffffffffffffffffffffffffff16146116e3576116975f855f5f611eb9565b600160035f8373ffffffffffffffffffffffffffffffffffffffff1673ffffffffffffffffffffffffffffffffffffffff1681526020019081526020015f205f82825403925050819055505b5f73ffffffffffffffffffffffffffffffffffffffff168573ffffffffffffffffffffffffffffffffffffffff161461176257600160035f8773ffffffffffffffffffffffffffffffffffffffff1673ffffffffffffffffffffffffffffffffffffffff1681526020019081526020015f205f82825401925050819055505b8460025f8681526020019081526020015f205f6101000a81548173ffffffffffffffffffffffffffffffffffffffff021916908373ffffffffffffffffffffffffffffffffffffffff160217905550838573ffffffffffffffffffffffffffffffffffffffff168273ffffffffffffffffffffffffffffffffffffffff167fddf252ad1be2c89b69c2b068fc378daa952ba7f163c4a11628f55a4df523b3ef60405160405180910390a4809150509392505050565b606061184d60067f000000000000000000000000000000000000000000000000000000000000000061213b90919063ffffffff16565b905090565b606061188860077f000000000000000000000000000000000000000000000000000000000000000061213b90919063ffffffff16565b905090565b5f73ffffffffffffffffffffffffffffffffffffffff168273ffffffffffffffffffffffffffffffffffffffff16036118fd57816040517f5b08ba180000000000000000000000000000000000000000000000000000000081526004016118f49190612aec565b60405180910390fd5b8060055f8573ffffffffffffffffffffffffffffffffffffffff1673ffffffffffffffffffffffffffffffffffffffff1681526020019081526020015f205f8473ffffffffffffffffffffffffffffffffffffffff1673ffffffffffffffffffffffffffffffffffffffff1681526020019081526020015f205f6101000a81548160ff0219169083151502179055508173ffffffffffffffffffffffffffffffffffffffff168373ffffffffffffffffffffffffffffffffffffffff167f17307eab39ab6107e8899845ad3d59bd9653f200f220920489ca2b5937696c31836040516119e991906129a6565b60405180910390a3505050565b5f73ffffffffffffffffffffffffffffffffffffffff168273ffffffffffffffffffffffffffffffffffffffff1603611a66575f6040517f64a0ae92000000000000000000000000000000000000000000000000000000008152600401611a5d9190612aec565b60405180910390fd5b5f611a7283835f61160c565b90505f73ffffffffffffffffffffffffffffffffffffffff168173ffffffffffffffffffffffffffffffffffffffff1614611ae4575f6040517f73c6ac6e000000000000000000000000000000000000000000000000000000008152600401611adb9190612aec565b60405180910390fd5b505050565b5f6bffffffffffffffffffffffff8016821115611b40576060826040517f6dfcc650000000000000000000000000000000000000000000000000000000008152600401611b379291906136d5565b60405180910390fd5b819050919050565b5f8373ffffffffffffffffffffffffffffffffffffffff163b1115611ced578273ffffffffffffffffffffffffffffffffffffffff1663150b7a02868685856040518563ffffffff1660e01b8152600401611ba6949392919061374e565b6020604051808303815f875af1925050508015611be157506040513d601f19601f82011682018060405250810190611bde91906137ac565b60015b611c62573d805f8114611c0f576040519150601f19603f3d011682016040523d82523d5f602084013e611c14565b606091505b505f815103611c5a57836040517f64a0ae92000000000000000000000000000000000000000000000000000000008152600401611c519190612aec565b60405180910390fd5b805160208201fd5b63150b7a0260e01b7bffffffffffffffffffffffffffffffffffffffffffffffffffffffff1916817bffffffffffffffffffffffffffffffffffffffffffffffffffffffff191614611ceb57836040517f64a0ae92000000000000000000000000000000000000000000000000000000008152600401611ce29190612aec565b60405180910390fd5b505b5050505050565b606060405180602001604052805f815250905090565b60605f6001611d18846121e8565b0190505f8167ffffffffffffffff811115611d3657611d35612ef0565b5b6040519080825280601f01601f191660200182016040528015611d685781602001600182028036833780820191505090505b5090505f82602083010190505b600115611dc9578080600190039150507f3031323334353637383961626364656600000000000000000000000000000000600a86061a8153600a8581611dbe57611dbd6137d7565b5b0494505f8503611d75575b819350505050919050565b5f611e4e7f2b682ee12a1c1f24bd352f1f0a5a701db37fcf7a4d23365a640e4b0aeadf0c41848460095f8881526020019081526020015f205f9054906101000a900467ffffffffffffffff16604051602001611e339493929190613813565b60405160208183030381529060405280519060200120612339565b905092915050565b5f5f5f5f611e648686612352565b925092509250611e7482826123a7565b82935050505092915050565b5f60025f8381526020019081526020015f205f9054906101000a900473ffffffffffffffffffffffffffffffffffffffff169050919050565b8080611ef157505f73ffffffffffffffffffffffffffffffffffffffff168273ffffffffffffffffffffffffffffffffffffffff1614155b15612023575f611f0084611534565b90505f73ffffffffffffffffffffffffffffffffffffffff168373ffffffffffffffffffffffffffffffffffffffff1614158015611f6a57508273ffffffffffffffffffffffffffffffffffffffff168173ffffffffffffffffffffffffffffffffffffffff1614155b8015611f7d5750611f7b81846113b7565b155b15611fbf57826040517fa9fbf51f000000000000000000000000000000000000000000000000000000008152600401611fb69190612aec565b60405180910390fd5b811561202157838573ffffffffffffffffffffffffffffffffffffffff168273ffffffffffffffffffffffffffffffffffffffff167f8c5be1e5ebec7d5bd14f71427d1e84f3dd0314c0f7b2291e5b200ac8c7c3b92560405160405180910390a45b505b8360045f8581526020019081526020015f205f6101000a81548173ffffffffffffffffffffffffffffffffffffffff021916908373ffffffffffffffffffffffffffffffffffffffff16021790555050505050565b612083838383612509565b612136575f73ffffffffffffffffffffffffffffffffffffffff168373ffffffffffffffffffffffffffffffffffffffff16036120f757806040517f7e2732890000000000000000000000000000000000000000000000000000000081526004016120ee9190612c32565b60405180910390fd5b81816040517f177e802f00000000000000000000000000000000000000000000000000000000815260040161212d929190613856565b60405180910390fd5b505050565b606060ff5f1b831461215757612150836125c9565b90506121e2565b818054612163906131e0565b80601f016020809104026020016040519081016040528092919081815260200182805461218f906131e0565b80156121da5780601f106121b1576101008083540402835291602001916121da565b820191905f5260205f20905b8154815290600101906020018083116121bd57829003601f168201915b505050505090505b92915050565b5f5f5f90507a184f03e93ff9f4daa797ed6e38ed64bf6a1f0100000000000000008310612244577a184f03e93ff9f4daa797ed6e38ed64bf6a1f010000000000000000838161223a576122396137d7565b5b0492506040810190505b6d04ee2d6d415b85acef81000000008310612281576d04ee2d6d415b85acef81000000008381612277576122766137d7565b5b0492506020810190505b662386f26fc1000083106122b057662386f26fc1000083816122a6576122a56137d7565b5b0492506010810190505b6305f5e10083106122d9576305f5e10083816122cf576122ce6137d7565b5b0492506008810190505b61271083106122fe5761271083816122f4576122f36137d7565b5b0492506004810190505b606483106123215760648381612317576123166137d7565b5b0492506002810190505b600a8310612330576001810190505b80915050919050565b5f61234b61234561263b565b836126f1565b9050919050565b5f5f5f6041845103612392575f5f5f602087015192506040870151915060608701515f1a905061238488828585612731565b9550955095505050506123a0565b5f600285515f1b9250925092505b9250925092565b5f60038111156123ba576123b961387d565b5b8260038111156123cd576123cc61387d565b5b031561250557600160038111156123e7576123e661387d565b5b8260038111156123fa576123f961387d565b5b03612431576040517ff645eedf00000000000000000000000000000000000000000000000000000000815260040160405180910390fd5b600260038111156124455761244461387d565b5b8260038111156124585761245761387d565b5b0361249c57805f1c6040517ffce698f70000000000000000000000000000000000000000000000000000000081526004016124939190612c32565b60405180910390fd5b6003808111156124af576124ae61387d565b5b8260038111156124c2576124c161387d565b5b0361250457806040517fd78bce0c0000000000000000000000000000000000000000000000000000000081526004016124fb9190612c63565b60405180910390fd5b5b5050565b5f5f73ffffffffffffffffffffffffffffffffffffffff168373ffffffffffffffffffffffffffffffffffffffff16141580156125c057508273ffffffffffffffffffffffffffffffffffffffff168473ffffffffffffffffffffffffffffffffffffffff161480612581575061258084846113b7565b5b806125bf57508273ffffffffffffffffffffffffffffffffffffffff166125a7836115ba565b73ffffffffffffffffffffffffffffffffffffffff16145b5b90509392505050565b60605f6125d583612818565b90505f602067ffffffffffffffff8111156125f3576125f2612ef0565b5b6040519080825280601f01601f1916602001820160405280156126255781602001600182028036833780820191505090505b5090508181528360208201528092505050919050565b5f7f000000000000000000000000000000000000000000000000000000000000000073ffffffffffffffffffffffffffffffffffffffff163073ffffffffffffffffffffffffffffffffffffffff161480156126b657507f000000000000000000000000000000000000000000000000000000000000000046145b156126e3577f000000000000000000000000000000000000000000000000000000000000000090506126ee565b6126eb612866565b90505b90565b5f6040517f190100000000000000000000000000000000000000000000000000000000000081528360028201528260228201526042812091505092915050565b5f5f5f7f7fffffffffffffffffffffffffffffff5d576e7357a4501ddfe92f46681b20a0845f1c111561276d575f60038592509250925061280e565b5f6001888888886040515f815260200160405260405161279094939291906138b9565b6020604051602081039080840390855afa1580156127b0573d5f5f3e3d5ffd5b5050506020604051035190505f73ffffffffffffffffffffffffffffffffffffffff168173ffffffffffffffffffffffffffffffffffffffff1603612801575f60015f5f1b9350935093505061280e565b805f5f5f1b935093509350505b9450945094915050565b5f5f60ff835f1c169050601f81111561285d576040517fb3512b0c00000000000000000000000000000000000000000000000000000000815260040160405180910390fd5b80915050919050565b5f7f8b73c3c69bb8fe3d512ecc4cf759cc79239f7b179b0ffacaa9a75d522b39400f7f00000000000000000000000000000000000000000000000000000000000000007f000000000000000000000000000000000000000000000000000000000000000046306040516020016128e09594939291906138fc565b60405160208183030381529060405280519060200120905090565b5f604051905090565b5f5ffd5b5f5ffd5b5f7fffffffff0000000000000000000000000000000000000000000000000000000082169050919050565b6129408161290c565b811461294a575f5ffd5b50565b5f8135905061295b81612937565b92915050565b5f6020828403121561297657612975612904565b5b5f6129838482850161294d565b91505092915050565b5f8115159050919050565b6129a08161298c565b82525050565b5f6020820190506129b95f830184612997565b92915050565b5f81519050919050565b5f82825260208201905092915050565b8281835e5f83830152505050565b5f601f19601f8301169050919050565b5f612a01826129bf565b612a0b81856129c9565b9350612a1b8185602086016129d9565b612a24816129e7565b840191505092915050565b5f6020820190508181035f830152612a4781846129f7565b905092915050565b5f819050919050565b612a6181612a4f565b8114612a6b575f5ffd5b50565b5f81359050612a7c81612a58565b92915050565b5f60208284031215612a9757612a96612904565b5b5f612aa484828501612a6e565b91505092915050565b5f73ffffffffffffffffffffffffffffffffffffffff82169050919050565b5f612ad682612aad565b9050919050565b612ae681612acc565b82525050565b5f602082019050612aff5f830184612add565b92915050565b612b0e81612acc565b8114612b18575f5ffd5b50565b5f81359050612b2981612b05565b92915050565b5f5f60408385031215612b4557612b44612904565b5b5f612b5285828601612b1b565b9250506020612b6385828601612a6e565b9150509250929050565b5f67ffffffffffffffff82169050919050565b612b8981612b6d565b82525050565b5f602082019050612ba25f830184612b80565b92915050565b5f5f5f60608486031215612bbf57612bbe612904565b5b5f612bcc86828701612b1b565b9350506020612bdd86828701612b1b565b9250506040612bee86828701612a6e565b9150509250925092565b5f60208284031215612c0d57612c0c612904565b5b5f612c1a84828501612b1b565b91505092915050565b612c2c81612a4f565b82525050565b5f602082019050612c455f830184612c23565b92915050565b5f819050919050565b612c5d81612c4b565b82525050565b5f602082019050612c765f830184612c54565b92915050565b5f7fff0000000000000000000000000000000000000000000000000000000000000082169050919050565b612cb081612c7c565b82525050565b5f81519050919050565b5f82825260208201905092915050565b5f819050602082019050919050565b612ce881612a4f565b82525050565b5f612cf98383612cdf565b60208301905092915050565b5f602082019050919050565b5f612d1b82612cb6565b612d258185612cc0565b9350612d3083612cd0565b805f5b83811015612d60578151612d478882612cee565b9750612d5283612d05565b925050600181019050612d33565b5085935050505092915050565b5f60e082019050612d805f83018a612ca7565b8181036020830152612d9281896129f7565b90508181036040830152612da681886129f7565b9050612db56060830187612c23565b612dc26080830186612add565b612dcf60a0830185612c54565b81810360c0830152612de18184612d11565b905098975050505050505050565b612df88161298c565b8114612e02575f5ffd5b50565b5f81359050612e1381612def565b92915050565b5f5f60408385031215612e2f57612e2e612904565b5b5f612e3c85828601612b1b565b9250506020612e4d85828601612e05565b9150509250929050565b5f6bffffffffffffffffffffffff82169050919050565b612e7781612e57565b8114612e81575f5ffd5b50565b5f81359050612e9281612e6e565b92915050565b5f5f5f60608486031215612eaf57612eae612904565b5b5f612ebc86828701612a6e565b9350506020612ecd86828701612b1b565b9250506040612ede86828701612e84565b9150509250925092565b5f5ffd5b5f5ffd5b7f4e487b71000000000000000000000000000000000000000000000000000000005f52604160045260245ffd5b612f26826129e7565b810181811067ffffffffffffffff82111715612f4557612f44612ef0565b5b80604052505050565b5f612f576128fb565b9050612f638282612f1d565b919050565b5f67ffffffffffffffff821115612f8257612f81612ef0565b5b612f8b826129e7565b9050602081019050919050565b828183375f83830152505050565b5f612fb8612fb384612f68565b612f4e565b905082815260208101848484011115612fd457612fd3612eec565b5b612fdf848285612f98565b509392505050565b5f82601f830112612ffb57612ffa612ee8565b5b813561300b848260208601612fa6565b91505092915050565b5f5f5f5f6080858703121561302c5761302b612904565b5b5f61303987828801612b1b565b945050602061304a87828801612b1b565b935050604061305b87828801612a6e565b925050606085013567ffffffffffffffff81111561307c5761307b612908565b5b61308887828801612fe7565b91505092959194509250565b5f5ffd5b5f5ffd5b5f5f83601f8401126130b1576130b0612ee8565b5b8235905067ffffffffffffffff8111156130ce576130cd613094565b5b6020830191508360018202830111156130ea576130e9613098565b5b9250929050565b5f5f5f5f5f6080868803121561310a57613109612904565b5b5f61311788828901612a6e565b955050602061312888828901612b1b565b945050604061313988828901612e84565b935050606086013567ffffffffffffffff81111561315a57613159612908565b5b6131668882890161309c565b92509250509295509295909350565b5f5f6040838503121561318b5761318a612904565b5b5f61319885828601612b1b565b92505060206131a985828601612b1b565b9150509250929050565b7f4e487b71000000000000000000000000000000000000000000000000000000005f52602260045260245ffd5b5f60028204905060018216806131f757607f821691505b60208210810361320a576132096131b3565b5b50919050565b5f6060820190506132235f830186612add565b6132306020830185612c23565b61323d6040830184612add565b949350505050565b7f4e487b71000000000000000000000000000000000000000000000000000000005f52603260045260245ffd5b7f43616c6c6572206973206e6f7420746865207661756c74206f776e65720000005f82015250565b5f6132a6601d836129c9565b91506132b182613272565b602082019050919050565b5f6020820190508181035f8301526132d38161329a565b9050919050565b7f576974686472617720616d6f756e74206d7573742062652067726561746572205f8201527f7468616e207a65726f0000000000000000000000000000000000000000000000602082015250565b5f6133346029836129c9565b915061333f826132da565b604082019050919050565b5f6020820190508181035f83015261336181613328565b9050919050565b7f4e487b71000000000000000000000000000000000000000000000000000000005f52601160045260245ffd5b5f61339f82612e57565b91506133aa83612e57565b925082820390506bffffffffffffffffffffffff8111156133ce576133cd613368565b5b92915050565b5f819050919050565b5f6133f76133f26133ed84612e57565b6133d4565b612a4f565b9050919050565b613407816133dd565b82525050565b5f6020820190506134205f8301846133fe565b92915050565b5f81905092915050565b50565b5f61343e5f83613426565b915061344982613430565b5f82019050919050565b5f61345d82613433565b9150819050919050565b7f5769746864726177616c206661696c65640000000000000000000000000000005f82015250565b5f61349b6011836129c9565b91506134a682613467565b602082019050919050565b5f6020820190508181035f8301526134c88161348f565b9050919050565b7f4465706f73697420616d6f756e74206d757374206265206772656174657220745f8201527f68616e207a65726f000000000000000000000000000000000000000000000000602082015250565b5f6135296028836129c9565b9150613534826134cf565b604082019050919050565b5f6020820190508181035f8301526135568161351d565b9050919050565b5f61356782612e57565b915061357283612e57565b925082820190506bffffffffffffffffffffffff81111561359657613595613368565b5b92915050565b5f81905092915050565b5f6135b0826129bf565b6135ba818561359c565b93506135ca8185602086016129d9565b80840191505092915050565b5f6135e182856135a6565b91506135ed82846135a6565b91508190509392505050565b7f496e76616c6964207369676e61747572650000000000000000000000000000005f82015250565b5f61362d6011836129c9565b9150613638826135f9565b602082019050919050565b5f6020820190508181035f83015261365a81613621565b9050919050565b5f61366b82612b6d565b915067ffffffffffffffff820361368557613684613368565b5b600182019050919050565b5f819050919050565b5f60ff82169050919050565b5f6136bf6136ba6136b584613690565b6133d4565b613699565b9050919050565b6136cf816136a5565b82525050565b5f6040820190506136e85f8301856136c6565b6136f56020830184612c23565b9392505050565b5f81519050919050565b5f82825260208201905092915050565b5f613720826136fc565b61372a8185613706565b935061373a8185602086016129d9565b613743816129e7565b840191505092915050565b5f6080820190506137615f830187612add565b61376e6020830186612add565b61377b6040830185612c23565b818103606083015261378d8184613716565b905095945050505050565b5f815190506137a681612937565b92915050565b5f602082840312156137c1576137c0612904565b5b5f6137ce84828501613798565b91505092915050565b7f4e487b71000000000000000000000000000000000000000000000000000000005f52601260045260245ffd5b61380d81612e57565b82525050565b5f6080820190506138265f830187612c54565b6138336020830186612c23565b6138406040830185613804565b61384d6060830184612b80565b95945050505050565b5f6040820190506138695f830185612add565b6138766020830184612c23565b9392505050565b7f4e487b71000000000000000000000000000000000000000000000000000000005f52602160045260245ffd5b6138b381613699565b82525050565b5f6080820190506138cc5f830187612c54565b6138d960208301866138aa565b6138e66040830185612c54565b6138f36060830184612c54565b95945050505050565b5f60a08201905061390f5f830188612c54565b61391c6020830187612c54565b6139296040830186612c54565b6139366060830185612c23565b6139436080830184612add565b969550505050505056fea2646970667358221220610d39b9f28db871c7a9345f1cd9cc28561b158a94af6608bfba0fc4d0cc701d64736f6c634300081c0033","linkReferences":{}},"methodIdentifiers":{"SALT()":"ba9a91a5","VERSION()":"ffa1ad74","WITHDRAW_TYPEHASH()":"76c5d758","approve(address,uint256)":"095ea7b3","balanceOf(address)":"70a08231","balanceOfVault(uint256)":"f741e56f","createVault(address)":"b4bd6f46","deposit(uint256)":"b6b55f25","eip712Domain()":"84b0196e","getApproved(uint256)":"081812fc","isApprovedForAll(address,address)":"e985e9c5","name()":"06fdde03","nonces(uint256)":"141a468c","ownerOf(uint256)":"6352211e","safeTransferFrom(address,address,uint256)":"42842e0e","safeTransferFrom(address,address,uint256,bytes)":"b88d4fde","setApprovalForAll(address,bool)":"a22cb465","supportsInterface(bytes4)":"01ffc9a7","symbol()":"95d89b41","tokenURI(uint256)":"c87b56dd","transferFrom(address,address,uint256)":"23b872dd","withdraw(uint256,address,uint96)":"a93ee5ae","withdrawWithSignature(uint256,address,uint96,bytes)":"e2e91a43"},"id":42}