{"abi":[{"type":"constructor","inputs":[{"name":"name_","type":"string","internalType":"string"},{"name":"symbol_","type":"string","internalType":"string"}],"stateMutability":"nonpayable"},{"type":"function","name":"SALT","inputs":[],"outputs":[{"name":"","type":"bytes32","internalType":"bytes32"}],"stateMutability":"view"},{"type":"function","name":"VERSION","inputs":[],"outputs":[{"name":"","type":"string","internalType":"string"}],"stateMutability":"view"},{"type":"function","name":"WITHDRAW_TYPEHASH","inputs":[],"outputs":[{"name":"","type":"bytes32","internalType":"bytes32"}],"stateMutability":"view"},{"type":"function","name":"approve","inputs":[{"name":"to","type":"address","internalType":"address"},{"name":"tokenId","type":"uint256","internalType":"uint256"}],"outputs":[],"stateMutability":"nonpayable"},{"type":"function","name":"balanceOf","inputs":[{"name":"owner","type":"address","internalType":"address"}],"outputs":[{"name":"","type":"uint256","internalType":"uint256"}],"stateMutability":"view"},{"type":"function","name":"balanceOfVault","inputs":[{"name":"vaultId","type":"uint256","internalType":"uint256"}],"outputs":[{"name":"","type":"uint256","internalType":"uint256"}],"stateMutability":"view"},{"type":"function","name":"createVault","inputs":[{"name":"owner","type":"address","internalType":"address"}],"outputs":[{"name":"","type":"uint256","internalType":"uint256"}],"stateMutability":"nonpayable"},{"type":"function","name":"deposit","inputs":[{"name":"vaultId","type":"uint256","internalType":"uint256"}],"outputs":[],"stateMutability":"payable"},{"type":"function","name":"eip712Domain","inputs":[],"outputs":[{"name":"fields","type":"bytes1","internalType":"bytes1"},{"name":"name","type":"string","internalType":"string"},{"name":"version","type":"string","internalType":"string"},{"name":"chainId","type":"uint256","internalType":"uint256"},{"name":"verifyingContract","type":"address","internalType":"address"},{"name":"salt","type":"bytes32","internalType":"bytes32"},{"name":"extensions","type":"uint256[]","internalType":"uint256[]"}],"stateMutability":"view"},{"type":"function","name":"getApproved","inputs":[{"name":"tokenId","type":"uint256","internalType":"uint256"}],"outputs":[{"name":"","type":"address","internalType":"address"}],"stateMutability":"view"},{"type":"function","name":"isApprovedForAll","inputs":[{"name":"owner","type":"address","internalType":"address"},{"name":"operator","type":"address","internalType":"address"}],"outputs":[{"name":"","type":"bool","internalType":"bool"}],"stateMutability":"view"},{"type":"function","name":"name","inputs":[],"outputs":[{"name":"","type":"string","internalType":"string"}],"stateMutability":"view"},{"type":"function","name":"nonces","inputs":[{"name":"vaultId","type":"uint256","internalType":"uint256"}],"outputs":[{"name":"nonce","type":"uint64","internalType":"uint64"}],"stateMutability":"view"},{"type":"function","name":"ownerOf","inputs":[{"name":"vaultId","type":"uint256","internalType":"uint256"}],"outputs":[{"name":"","type":"address","internalType":"address"}],"stateMutability":"view"},{"type":"function","name":"safeTransferFrom","inputs":[{"name":"from","type":"address","internalType":"address"},{"name":"to","type":"address","internalType":"address"},{"name":"tokenId","type":"uint256","internalType":"uint256"}],"outputs":[],"stateMutability":"nonpayable"},{"type":"function","name":"safeTransferFrom","inputs":[{"name":"from","type":"address","internalType":"address"},{"name":"to","type":"address","internalType":"address"},{"name":"tokenId","type":"uint256","internalType":"uint256"},{"name":"data","type":"bytes","internalType":"bytes"}],"outputs":[],"stateMutability":"nonpayable"},{"type":"function","name":"setApprovalForAll","inputs":[{"name":"operator","type":"address","internalType":"address"},{"name":"approved","type":"bool","internalType":"bool"}],"outputs":[],"stateMutability":"nonpayable"},{"type":"function","name":"supportsInterface","inputs":[{"name":"interfaceId","type":"bytes4","internalType":"bytes4"}],"outputs":[{"name":"","type":"bool","internalType":"bool"}],"stateMutability":"view"},{"type":"function","name":"symbol","inputs":[],"outputs":[{"name":"","type":"string","internalType":"string"}],"stateMutability":"view"},{"type":"function","name":"tokenURI","inputs":[{"name":"tokenId","type":"uint256","internalType":"uint256"}],"outputs":[{"name":"","type":"string","internalType":"string"}],"stateMutability":"view"},{"type":"function","name":"transferFrom","inputs":[{"name":"from","type":"address","internalType":"address"},{"name":"to","type":"address","internalType":"address"},{"name":"tokenId","type":"uint256","internalType":"uint256"}],"outputs":[],"stateMutability":"nonpayable"},{"type":"function","name":"withdraw","inputs":[{"name":"vaultId","type":"uint256","internalType":"uint256"},{"name":"receiver","type":"address","internalType":"address"},{"name":"amount","type":"uint96","internalType":"uint96"}],"outputs":[],"stateMutability":"nonpayable"},{"type":"function","name":"withdrawWithSignature","inputs":[{"name":"vaultId","type":"uint256","internalType":"uint256"},{"name":"receiver","type":"address","internalType":"address"},{"name":"amount","type":"uint96","internalType":"uint96"},{"name":"signature","type":"bytes","internalType":"bytes"}],"outputs":[],"stateMutability":"nonpayable"},{"type":"event","name":"Approval","inputs":[{"name":"owner","type":"address","indexed":true,"internalType":"address"},{"name":"approved","type":"address","indexed":true,"internalType":"address"},{"name":"tokenId","type":"uint256","indexed":true,"internalType":"uint256"}],"anonymous":false},{"type":"event","name":"ApprovalForAll","inputs":[{"name":"owner","type":"address","indexed":true,"internalType":"address"},{"name":"operator","type":"address","indexed":true,"internalType":"address"},{"name":"approved","type":"bool","indexed":false,"internalType":"bool"}],"anonymous":false},{"type":"event","name":"Deposit","inputs":[{"name":"vaultId","type":"uint256","indexed":true,"internalType":"uint256"},{"name":"sender","type":"address","indexed":true,"internalType":"address"},{"name":"amount","type":"uint256","indexed":false,"internalType":"uint256"}],"anonymous":false},{"type":"event","name":"EIP712DomainChanged","inputs":[],"anonymous":false},{"type":"event","name":"Transfer","inputs":[{"name":"from","type":"address","indexed":true,"internalType":"address"},{"name":"to","type":"address","indexed":true,"internalType":"address"},{"name":"tokenId","type":"uint256","indexed":true,"internalType":"uint256"}],"anonymous":false},{"type":"event","name":"VaultCreated","inputs":[{"name":"vaultId","type":"uint256","indexed":true,"internalType":"uint256"},{"name":"owner","type":"address","indexed":true,"internalType":"address"}],"anonymous":false},{"type":"event","name":"Withdraw","inputs":[{"name":"vaultId","type":"uint256","indexed":true,"internalType":"uint256"},{"name":"receiver","type":"address","indexed":true,"internalType":"address"},{"name":"owner","type":"address","indexed":true,"internalType":"address"},{"name":"amount","type":"uint256","indexed":false,"internalType":"uint256"}],"anonymous":false},{"type":"error","name":"ECDSAInvalidSignature","inputs":[]},{"type":"error","name":"ECDSAInvalidSignatureLength","inputs":[{"name":"length","type":"uint256","internalType":"uint256"}]},{"type":"error","name":"ECDSAInvalidSignatureS","inputs":[{"name":"s","type":"bytes32","internalType":"bytes32"}]},{"type":"error","name":"ERC721IncorrectOwner","inputs":[{"name":"sender","type":"address","internalType":"address"},{"name":"tokenId","type":"uint256","internalType":"uint256"},{"name":"owner","type":"address","internalType":"address"}]},{"type":"error","name":"ERC721InsufficientApproval","inputs":[{"name":"operator","type":"address","internalType":"address"},{"name":"tokenId","type":"uint256","internalType":"uint256"}]},{"type":"error","name":"ERC721InvalidApprover","inputs":[{"name":"approver","type":"address","internalType":"address"}]},{"type":"error","name":"ERC721InvalidOperator","inputs":[{"name":"operator","type":"address","internalType":"address"}]},{"type":"error","name":"ERC721InvalidOwner","inputs":[{"name":"owner","type":"address","internalType":"address"}]},{"type":"error","name":"ERC721InvalidReceiver","inputs":[{"name":"receiver","type":"address","internalType":"address"}]},{"type":"error","name":"ERC721InvalidSender","inputs":[{"name":"sender","type":"address","internalType":"address"}]},{"type":"error","name":"ERC721NonexistentToken","inputs":[{"name":"tokenId","type":"uint256","internalType":"uint256"}]},{"type":"error","name":"InvalidShortString","inputs":[]},{"type":"error","name":"SafeCastOverflowedUintDowncast","inputs":[{"name":"bits","type":"uint8","internalType":"uint8"},{"name":"value","type":"uint256","internalType":"uint256"}]},{"type":"error","name":"StringTooLong","inputs":[{"name":"str","type":"string","internalType":"string"}]}],"bytecode":{"object":"0x61016060405234801562000011575f80fd5b506040516200437738038062004377833981810160405281019062000037919062000411565b816040518060400160405280600181526020017f31000000000000000000000000000000000000000000000000000000000000008152508383815f9081620000809190620006cb565b508060019081620000929190620006cb565b505050620000ab6006836200016860201b90919060201c565b6101208181525050620000c96007826200016860201b90919060201c565b6101408181525050818051906020012060e08181525050808051906020012061010081815250504660a0818152505062000108620001bd60201b60201c565b608081815250503073ffffffffffffffffffffffffffffffffffffffff1660c08173ffffffffffffffffffffffffffffffffffffffff16815250505050600860018160018154018082558091505003905f5260205f205050505062000988565b5f6020835110156200018d5762000185836200021960201b60201c565b9050620001b7565b826200019f836200028360201b60201c565b5f019081620001af9190620006cb565b5060ff5f1b90505b92915050565b5f7f8b73c3c69bb8fe3d512ecc4cf759cc79239f7b179b0ffacaa9a75d522b39400f60e051610100514630604051602001620001fe9594939291906200081d565b60405160208183030381529060405280519060200120905090565b5f80829050601f815111156200026857826040517f305a27a90000000000000000000000000000000000000000000000000000000081526004016200025f9190620008c8565b60405180910390fd5b805181620002769062000919565b5f1c175f1b915050919050565b5f819050919050565b5f604051905090565b5f80fd5b5f80fd5b5f80fd5b5f80fd5b5f601f19601f8301169050919050565b7f4e487b71000000000000000000000000000000000000000000000000000000005f52604160045260245ffd5b620002ed82620002a5565b810181811067ffffffffffffffff821117156200030f576200030e620002b5565b5b80604052505050565b5f620003236200028c565b9050620003318282620002e2565b919050565b5f67ffffffffffffffff821115620003535762000352620002b5565b5b6200035e82620002a5565b9050602081019050919050565b5f5b838110156200038a5780820151818401526020810190506200036d565b5f8484015250505050565b5f620003ab620003a58462000336565b62000318565b905082815260208101848484011115620003ca57620003c9620002a1565b5b620003d78482856200036b565b509392505050565b5f82601f830112620003f657620003f56200029d565b5b81516200040884826020860162000395565b91505092915050565b5f80604083850312156200042a576200042962000295565b5b5f83015167ffffffffffffffff8111156200044a576200044962000299565b5b6200045885828601620003df565b925050602083015167ffffffffffffffff8111156200047c576200047b62000299565b5b6200048a85828601620003df565b9150509250929050565b5f81519050919050565b7f4e487b71000000000000000000000000000000000000000000000000000000005f52602260045260245ffd5b5f6002820490506001821680620004e357607f821691505b602082108103620004f957620004f86200049e565b5b50919050565b5f819050815f5260205f209050919050565b5f6020601f8301049050919050565b5f82821b905092915050565b5f600883026200055d7fffffffffffffffffffffffffffffffffffffffffffffffffffffffffffffffff8262000520565b62000569868362000520565b95508019841693508086168417925050509392505050565b5f819050919050565b5f819050919050565b5f620005b3620005ad620005a78462000581565b6200058a565b62000581565b9050919050565b5f819050919050565b620005ce8362000593565b620005e6620005dd82620005ba565b8484546200052c565b825550505050565b5f90565b620005fc620005ee565b62000609818484620005c3565b505050565b5b818110156200063057620006245f82620005f2565b6001810190506200060f565b5050565b601f8211156200067f576200064981620004ff565b620006548462000511565b8101602085101562000664578190505b6200067c620006738562000511565b8301826200060e565b50505b505050565b5f82821c905092915050565b5f620006a15f198460080262000684565b1980831691505092915050565b5f620006bb838362000690565b9150826002028217905092915050565b620006d68262000494565b67ffffffffffffffff811115620006f257620006f1620002b5565b5b620006fe8254620004cb565b6200070b82828562000634565b5f60209050601f83116001811462000741575f84156200072c578287015190505b620007388582620006ae565b865550620007a7565b601f1984166200075186620004ff565b5f5b828110156200077a5784890151825560018201915060208501945060208101905062000753565b868310156200079a578489015162000796601f89168262000690565b8355505b6001600288020188555050505b505050505050565b5f819050919050565b620007c381620007af565b82525050565b620007d48162000581565b82525050565b5f73ffffffffffffffffffffffffffffffffffffffff82169050919050565b5f6200080582620007da565b9050919050565b6200081781620007f9565b82525050565b5f60a082019050620008325f830188620007b8565b620008416020830187620007b8565b620008506040830186620007b8565b6200085f6060830185620007c9565b6200086e60808301846200080c565b9695505050505050565b5f82825260208201905092915050565b5f620008948262000494565b620008a0818562000878565b9350620008b28185602086016200036b565b620008bd81620002a5565b840191505092915050565b5f6020820190508181035f830152620008e2818462000888565b905092915050565b5f81519050919050565b5f819050602082019050919050565b5f620009108251620007af565b80915050919050565b5f6200092582620008ea565b826200093184620008f4565b90506200093e8162000903565b9250602082101562000981576200097c7fffffffffffffffffffffffffffffffffffffffffffffffffffffffffffffffff8360200360080262000520565b831692505b5050919050565b60805160a05160c05160e05161010051610120516101405161399d620009da5f395f61185b01525f61182001525f6128ab01525f61288a01525f61263e01525f61269401525f6126bd015261399d5ff3fe60806040526004361061013f575f3560e01c806395d89b41116100b5578063ba9a91a51161006e578063ba9a91a514610465578063c87b56dd1461048f578063e2e91a43146104cb578063e985e9c5146104f3578063f741e56f1461052f578063ffa1ad741461056b5761013f565b806395d89b411461036b578063a22cb46514610395578063a93ee5ae146103bd578063b4bd6f46146103e5578063b6b55f2514610421578063b88d4fde1461043d5761013f565b806323b872dd1161010757806323b872dd1461024957806342842e0e146102715780636352211e1461029957806370a08231146102d557806376c5d7581461031157806384b0196e1461033b5761013f565b806301ffc9a71461014357806306fdde031461017f578063081812fc146101a9578063095ea7b3146101e5578063141a468c1461020d575b5f80fd5b34801561014e575f80fd5b5061016960048036038101906101649190612961565b610595565b60405161017691906129a6565b60405180910390f35b34801561018a575f80fd5b50610193610676565b6040516101a09190612a49565b60405180910390f35b3480156101b4575f80fd5b506101cf60048036038101906101ca9190612a9c565b610705565b6040516101dc9190612b06565b60405180910390f35b3480156101f0575f80fd5b5061020b60048036038101906102069190612b49565b610720565b005b348015610218575f80fd5b50610233600480360381019061022e9190612a9c565b610736565b6040516102409190612ba9565b60405180910390f35b348015610254575f80fd5b5061026f600480360381019061026a9190612bc2565b61075a565b005b34801561027c575f80fd5b5061029760048036038101906102929190612bc2565b610859565b005b3480156102a4575f80fd5b506102bf60048036038101906102ba9190612a9c565b610878565b6040516102cc9190612b06565b60405180910390f35b3480156102e0575f80fd5b506102fb60048036038101906102f69190612c12565b6108be565b6040516103089190612c4c565b60405180910390f35b34801561031c575f80fd5b50610325610974565b6040516103329190612c7d565b60405180910390f35b348015610346575f80fd5b5061034f610998565b6040516103629796959493929190612d87565b60405180910390f35b348015610376575f80fd5b5061037f610a3d565b60405161038c9190612a49565b60405180910390f35b3480156103a0575f80fd5b506103bb60048036038101906103b69190612e33565b610acd565b005b3480156103c8575f80fd5b506103e360048036038101906103de9190612eb2565b610ae3565b005b3480156103f0575f80fd5b5061040b60048036038101906104069190612c12565b610d73565b6040516104189190612c4c565b60405180910390f35b61043b60048036038101906104369190612a9c565b610ead565b005b348015610448575f80fd5b50610463600480360381019061045e919061302e565b610fbc565b005b348015610470575f80fd5b50610479610fe1565b6040516104869190612c7d565b60405180910390f35b34801561049a575f80fd5b506104b560048036038101906104b09190612a9c565b611005565b6040516104c29190612a49565b60405180910390f35b3480156104d6575f80fd5b506104f160048036038101906104ec919061310b565b61106b565b005b3480156104fe575f80fd5b506105196004803603810190610514919061318f565b6113b7565b60405161052691906129a6565b60405180910390f35b34801561053a575f80fd5b5061055560048036038101906105509190612a9c565b611445565b6040516105629190612c4c565b60405180910390f35b348015610576575f80fd5b5061057f611492565b60405161058c9190612a49565b60405180910390f35b5f7f80ac58cd000000000000000000000000000000000000000000000000000000007bffffffffffffffffffffffffffffffffffffffffffffffffffffffff1916827bffffffffffffffffffffffffffffffffffffffffffffffffffffffff1916148061065f57507f5b5e139f000000000000000000000000000000000000000000000000000000007bffffffffffffffffffffffffffffffffffffffffffffffffffffffff1916827bffffffffffffffffffffffffffffffffffffffffffffffffffffffff1916145b8061066f575061066e826114cb565b5b9050919050565b60605f8054610684906131fa565b80601f01602080910402602001604051908101604052809291908181526020018280546106b0906131fa565b80156106fb5780601f106106d2576101008083540402835291602001916106fb565b820191905f5260205f20905b8154815290600101906020018083116106de57829003601f168201915b5050505050905090565b5f61070f82611534565b50610719826115ba565b9050919050565b610732828261072d6115f3565b6115fa565b5050565b6009602052805f5260405f205f915054906101000a900467ffffffffffffffff1681565b5f73ffffffffffffffffffffffffffffffffffffffff168273ffffffffffffffffffffffffffffffffffffffff16036107ca575f6040517f64a0ae920000000000000000000000000000000000000000000000000000000081526004016107c19190612b06565b60405180910390fd5b5f6107dd83836107d86115f3565b61160c565b90508373ffffffffffffffffffffffffffffffffffffffff168173ffffffffffffffffffffffffffffffffffffffff1614610853578382826040517f64283d7b00000000000000000000000000000000000000000000000000000000815260040161084a9392919061322a565b60405180910390fd5b50505050565b61087383838360405180602001604052805f815250610fbc565b505050565b5f6008828154811061088d5761088c61325f565b5b905f5260205f20015f015f9054906101000a900473ffffffffffffffffffffffffffffffffffffffff169050919050565b5f8073ffffffffffffffffffffffffffffffffffffffff168273ffffffffffffffffffffffffffffffffffffffff160361092f575f6040517f89c62b640000000000000000000000000000000000000000000000000000000081526004016109269190612b06565b60405180910390fd5b60035f8373ffffffffffffffffffffffffffffffffffffffff1673ffffffffffffffffffffffffffffffffffffffff1681526020019081526020015f20549050919050565b7f2b682ee12a1c1f24bd352f1f0a5a701db37fcf7a4d23365a640e4b0aeadf0c4181565b5f6060805f805f60606109a9611817565b6109b1611852565b46305f801b5f67ffffffffffffffff8111156109d0576109cf612f0a565b5b6040519080825280602002602001820160405280156109fe5781602001602082028036833780820191505090505b507f0f00000000000000000000000000000000000000000000000000000000000000959493929190965096509650965096509650965090919293949596565b606060018054610a4c906131fa565b80601f0160208091040260200160405190810160405280929190818152602001828054610a78906131fa565b8015610ac35780601f10610a9a57610100808354040283529160200191610ac3565b820191905f5260205f20905b815481529060010190602001808311610aa657829003601f168201915b5050505050905090565b610adf610ad86115f3565b838361188d565b5050565b60088381548110610af757610af661325f565b5b905f5260205f20015f015f9054906101000a900473ffffffffffffffffffffffffffffffffffffffff1673ffffffffffffffffffffffffffffffffffffffff163373ffffffffffffffffffffffffffffffffffffffff1614610b8e576040517f08c379a0000000000000000000000000000000000000000000000000000000008152600401610b85906132d6565b60405180910390fd5b5f816bffffffffffffffffffffffff1603610bde576040517f08c379a0000000000000000000000000000000000000000000000000000000008152600401610bd590613364565b60405180910390fd5b8060088481548110610bf357610bf261325f565b5b905f5260205f20015f0160148282829054906101000a90046bffffffffffffffffffffffff16610c2391906133af565b92506101000a8154816bffffffffffffffffffffffff02191690836bffffffffffffffffffffffff1602179055503373ffffffffffffffffffffffffffffffffffffffff168273ffffffffffffffffffffffffffffffffffffffff16847ffeb2000dca3e617cd6f3a8bbb63014bb54a124aac6ccbf73ee7229b4cd01f12084604051610caf9190613427565b60405180910390a45f8273ffffffffffffffffffffffffffffffffffffffff16826bffffffffffffffffffffffff16604051610cea9061346d565b5f6040518083038185875af1925050503d805f8114610d24576040519150601f19603f3d011682016040523d82523d5f602084013e610d29565b606091505b5050905080610d6d576040517f08c379a0000000000000000000000000000000000000000000000000000000008152600401610d64906134cb565b60405180910390fd5b50505050565b5f806008805490509050600860405180604001604052808573ffffffffffffffffffffffffffffffffffffffff1681526020015f6bffffffffffffffffffffffff16815250908060018154018082558091505060019003905f5260205f20015f909190919091505f820151815f015f6101000a81548173ffffffffffffffffffffffffffffffffffffffff021916908373ffffffffffffffffffffffffffffffffffffffff1602179055506020820151815f0160146101000a8154816bffffffffffffffffffffffff02191690836bffffffffffffffffffffffff1602179055505050610e6083826119f6565b8273ffffffffffffffffffffffffffffffffffffffff16817fbf3e9c93de94306b70ac5b9411edf475545815333bf651b894b9eada6482c59460405160405180910390a380915050919050565b5f3403610eef576040517f08c379a0000000000000000000000000000000000000000000000000000000008152600401610ee690613559565b60405180910390fd5b610ef834611ae9565b60088281548110610f0c57610f0b61325f565b5b905f5260205f20015f0160148282829054906101000a90046bffffffffffffffffffffffff16610f3c9190613577565b92506101000a8154816bffffffffffffffffffffffff02191690836bffffffffffffffffffffffff1602179055503373ffffffffffffffffffffffffffffffffffffffff16817feaa18152488ce5959073c9c79c88ca90b3d96c00de1f118cfaad664c3dab06b934604051610fb19190612c4c565b60405180910390a350565b610fc784848461075a565b610fdb610fd26115f3565b85858585611b48565b50505050565b7fcd6b0bebce481dbbe644b9aef53d843ed9bbfe98080202e1f3e1bd9d8761e00481565b606061101082611534565b505f61101a611cf4565b90505f8151116110385760405180602001604052805f815250611063565b8061104284611d0a565b6040516020016110539291906135f0565b6040516020818303038152906040525b915050919050565b5f836bffffffffffffffffffffffff16036110bb576040517f08c379a00000000000000000000000000000000000000000000000000000000081526004016110b290613364565b60405180910390fd5b5f6110c68685611dd4565b90505f6111168285858080601f0160208091040260200160405190810160405280939291908181526020018383808284375f81840152601f19601f82011690508083019250505050505050611e56565b90506008878154811061112c5761112b61325f565b5b905f5260205f20015f015f9054906101000a900473ffffffffffffffffffffffffffffffffffffffff1673ffffffffffffffffffffffffffffffffffffffff168173ffffffffffffffffffffffffffffffffffffffff16146111c3576040517f08c379a00000000000000000000000000000000000000000000000000000000081526004016111ba9061365d565b60405180910390fd5b60095f8881526020019081526020015f205f81819054906101000a900467ffffffffffffffff16809291906111f79061367b565b91906101000a81548167ffffffffffffffff021916908367ffffffffffffffff1602179055505084600888815481106112335761123261325f565b5b905f5260205f20015f0160148282829054906101000a90046bffffffffffffffffffffffff1661126391906133af565b92506101000a8154816bffffffffffffffffffffffff02191690836bffffffffffffffffffffffff1602179055508073ffffffffffffffffffffffffffffffffffffffff168673ffffffffffffffffffffffffffffffffffffffff16887ffeb2000dca3e617cd6f3a8bbb63014bb54a124aac6ccbf73ee7229b4cd01f120886040516112ef9190613427565b60405180910390a45f8673ffffffffffffffffffffffffffffffffffffffff16866bffffffffffffffffffffffff1660405161132a9061346d565b5f6040518083038185875af1925050503d805f8114611364576040519150601f19603f3d011682016040523d82523d5f602084013e611369565b606091505b50509050806113ad576040517f08c379a00000000000000000000000000000000000000000000000000000000081526004016113a4906134cb565b60405180910390fd5b5050505050505050565b5f60055f8473ffffffffffffffffffffffffffffffffffffffff1673ffffffffffffffffffffffffffffffffffffffff1681526020019081526020015f205f8373ffffffffffffffffffffffffffffffffffffffff1673ffffffffffffffffffffffffffffffffffffffff1681526020019081526020015f205f9054906101000a900460ff16905092915050565b5f6008828154811061145a5761145961325f565b5b905f5260205f20015f0160149054906101000a90046bffffffffffffffffffffffff166bffffffffffffffffffffffff169050919050565b6040518060400160405280600181526020017f310000000000000000000000000000000000000000000000000000000000000081525081565b5f7f01ffc9a7000000000000000000000000000000000000000000000000000000007bffffffffffffffffffffffffffffffffffffffffffffffffffffffff1916827bffffffffffffffffffffffffffffffffffffffffffffffffffffffff1916149050919050565b5f8061153f83611e80565b90505f73ffffffffffffffffffffffffffffffffffffffff168173ffffffffffffffffffffffffffffffffffffffff16036115b157826040517f7e2732890000000000000000000000000000000000000000000000000000000081526004016115a89190612c4c565b60405180910390fd5b80915050919050565b5f60045f8381526020019081526020015f205f9054906101000a900473ffffffffffffffffffffffffffffffffffffffff169050919050565b5f33905090565b6116078383836001611eb9565b505050565b5f8061161784611e80565b90505f73ffffffffffffffffffffffffffffffffffffffff168373ffffffffffffffffffffffffffffffffffffffff161461165857611657818486612078565b5b5f73ffffffffffffffffffffffffffffffffffffffff168173ffffffffffffffffffffffffffffffffffffffff16146116e3576116975f855f80611eb9565b600160035f8373ffffffffffffffffffffffffffffffffffffffff1673ffffffffffffffffffffffffffffffffffffffff1681526020019081526020015f205f82825403925050819055505b5f73ffffffffffffffffffffffffffffffffffffffff168573ffffffffffffffffffffffffffffffffffffffff161461176257600160035f8773ffffffffffffffffffffffffffffffffffffffff1673ffffffffffffffffffffffffffffffffffffffff1681526020019081526020015f205f82825401925050819055505b8460025f8681526020019081526020015f205f6101000a81548173ffffffffffffffffffffffffffffffffffffffff021916908373ffffffffffffffffffffffffffffffffffffffff160217905550838573ffffffffffffffffffffffffffffffffffffffff168273ffffffffffffffffffffffffffffffffffffffff167fddf252ad1be2c89b69c2b068fc378daa952ba7f163c4a11628f55a4df523b3ef60405160405180910390a4809150509392505050565b606061184d60067f000000000000000000000000000000000000000000000000000000000000000061213b90919063ffffffff16565b905090565b606061188860077f000000000000000000000000000000000000000000000000000000000000000061213b90919063ffffffff16565b905090565b5f73ffffffffffffffffffffffffffffffffffffffff168273ffffffffffffffffffffffffffffffffffffffff16036118fd57816040517f5b08ba180000000000000000000000000000000000000000000000000000000081526004016118f49190612b06565b60405180910390fd5b8060055f8573ffffffffffffffffffffffffffffffffffffffff1673ffffffffffffffffffffffffffffffffffffffff1681526020019081526020015f205f8473ffffffffffffffffffffffffffffffffffffffff1673ffffffffffffffffffffffffffffffffffffffff1681526020019081526020015f205f6101000a81548160ff0219169083151502179055508173ffffffffffffffffffffffffffffffffffffffff168373ffffffffffffffffffffffffffffffffffffffff167f17307eab39ab6107e8899845ad3d59bd9653f200f220920489ca2b5937696c31836040516119e991906129a6565b60405180910390a3505050565b5f73ffffffffffffffffffffffffffffffffffffffff168273ffffffffffffffffffffffffffffffffffffffff1603611a66575f6040517f64a0ae92000000000000000000000000000000000000000000000000000000008152600401611a5d9190612b06565b60405180910390fd5b5f611a7283835f61160c565b90505f73ffffffffffffffffffffffffffffffffffffffff168173ffffffffffffffffffffffffffffffffffffffff1614611ae4575f6040517f73c6ac6e000000000000000000000000000000000000000000000000000000008152600401611adb9190612b06565b60405180910390fd5b505050565b5f6bffffffffffffffffffffffff8016821115611b40576060826040517f6dfcc650000000000000000000000000000000000000000000000000000000008152600401611b379291906136ef565b60405180910390fd5b819050919050565b5f8373ffffffffffffffffffffffffffffffffffffffff163b1115611ced578273ffffffffffffffffffffffffffffffffffffffff1663150b7a02868685856040518563ffffffff1660e01b8152600401611ba69493929190613768565b6020604051808303815f875af1925050508015611be157506040513d601f19601f82011682018060405250810190611bde91906137c6565b60015b611c62573d805f8114611c0f576040519150601f19603f3d011682016040523d82523d5f602084013e611c14565b606091505b505f815103611c5a57836040517f64a0ae92000000000000000000000000000000000000000000000000000000008152600401611c519190612b06565b60405180910390fd5b805160208201fd5b63150b7a0260e01b7bffffffffffffffffffffffffffffffffffffffffffffffffffffffff1916817bffffffffffffffffffffffffffffffffffffffffffffffffffffffff191614611ceb57836040517f64a0ae92000000000000000000000000000000000000000000000000000000008152600401611ce29190612b06565b60405180910390fd5b505b5050505050565b606060405180602001604052805f815250905090565b60605f6001611d18846121e8565b0190505f8167ffffffffffffffff811115611d3657611d35612f0a565b5b6040519080825280601f01601f191660200182016040528015611d685781602001600182028036833780820191505090505b5090505f82602083010190505b600115611dc9578080600190039150507f3031323334353637383961626364656600000000000000000000000000000000600a86061a8153600a8581611dbe57611dbd6137f1565b5b0494505f8503611d75575b819350505050919050565b5f611e4e7f2b682ee12a1c1f24bd352f1f0a5a701db37fcf7a4d23365a640e4b0aeadf0c41848460095f8881526020019081526020015f205f9054906101000a900467ffffffffffffffff16604051602001611e33949392919061382d565b60405160208183030381529060405280519060200120612339565b905092915050565b5f805f80611e648686612352565b925092509250611e7482826123a7565b82935050505092915050565b5f60025f8381526020019081526020015f205f9054906101000a900473ffffffffffffffffffffffffffffffffffffffff169050919050565b8080611ef157505f73ffffffffffffffffffffffffffffffffffffffff168273ffffffffffffffffffffffffffffffffffffffff1614155b15612023575f611f0084611534565b90505f73ffffffffffffffffffffffffffffffffffffffff168373ffffffffffffffffffffffffffffffffffffffff1614158015611f6a57508273ffffffffffffffffffffffffffffffffffffffff168173ffffffffffffffffffffffffffffffffffffffff1614155b8015611f7d5750611f7b81846113b7565b155b15611fbf57826040517fa9fbf51f000000000000000000000000000000000000000000000000000000008152600401611fb69190612b06565b60405180910390fd5b811561202157838573ffffffffffffffffffffffffffffffffffffffff168273ffffffffffffffffffffffffffffffffffffffff167f8c5be1e5ebec7d5bd14f71427d1e84f3dd0314c0f7b2291e5b200ac8c7c3b92560405160405180910390a45b505b8360045f8581526020019081526020015f205f6101000a81548173ffffffffffffffffffffffffffffffffffffffff021916908373ffffffffffffffffffffffffffffffffffffffff16021790555050505050565b612083838383612509565b612136575f73ffffffffffffffffffffffffffffffffffffffff168373ffffffffffffffffffffffffffffffffffffffff16036120f757806040517f7e2732890000000000000000000000000000000000000000000000000000000081526004016120ee9190612c4c565b60405180910390fd5b81816040517f177e802f00000000000000000000000000000000000000000000000000000000815260040161212d929190613870565b60405180910390fd5b505050565b606060ff5f1b831461215757612150836125c9565b90506121e2565b818054612163906131fa565b80601f016020809104026020016040519081016040528092919081815260200182805461218f906131fa565b80156121da5780601f106121b1576101008083540402835291602001916121da565b820191905f5260205f20905b8154815290600101906020018083116121bd57829003601f168201915b505050505090505b92915050565b5f805f90507a184f03e93ff9f4daa797ed6e38ed64bf6a1f0100000000000000008310612244577a184f03e93ff9f4daa797ed6e38ed64bf6a1f010000000000000000838161223a576122396137f1565b5b0492506040810190505b6d04ee2d6d415b85acef81000000008310612281576d04ee2d6d415b85acef81000000008381612277576122766137f1565b5b0492506020810190505b662386f26fc1000083106122b057662386f26fc1000083816122a6576122a56137f1565b5b0492506010810190505b6305f5e10083106122d9576305f5e10083816122cf576122ce6137f1565b5b0492506008810190505b61271083106122fe5761271083816122f4576122f36137f1565b5b0492506004810190505b606483106123215760648381612317576123166137f1565b5b0492506002810190505b600a8310612330576001810190505b80915050919050565b5f61234b61234561263b565b836126f1565b9050919050565b5f805f6041845103612392575f805f602087015192506040870151915060608701515f1a905061238488828585612731565b9550955095505050506123a0565b5f600285515f1b9250925092505b9250925092565b5f60038111156123ba576123b9613897565b5b8260038111156123cd576123cc613897565b5b031561250557600160038111156123e7576123e6613897565b5b8260038111156123fa576123f9613897565b5b03612431576040517ff645eedf00000000000000000000000000000000000000000000000000000000815260040160405180910390fd5b6002600381111561244557612444613897565b5b82600381111561245857612457613897565b5b0361249c57805f1c6040517ffce698f70000000000000000000000000000000000000000000000000000000081526004016124939190612c4c565b60405180910390fd5b6003808111156124af576124ae613897565b5b8260038111156124c2576124c1613897565b5b0361250457806040517fd78bce0c0000000000000000000000000000000000000000000000000000000081526004016124fb9190612c7d565b60405180910390fd5b5b5050565b5f8073ffffffffffffffffffffffffffffffffffffffff168373ffffffffffffffffffffffffffffffffffffffff16141580156125c057508273ffffffffffffffffffffffffffffffffffffffff168473ffffffffffffffffffffffffffffffffffffffff161480612581575061258084846113b7565b5b806125bf57508273ffffffffffffffffffffffffffffffffffffffff166125a7836115ba565b73ffffffffffffffffffffffffffffffffffffffff16145b5b90509392505050565b60605f6125d583612818565b90505f602067ffffffffffffffff8111156125f3576125f2612f0a565b5b6040519080825280601f01601f1916602001820160405280156126255781602001600182028036833780820191505090505b5090508181528360208201528092505050919050565b5f7f000000000000000000000000000000000000000000000000000000000000000073ffffffffffffffffffffffffffffffffffffffff163073ffffffffffffffffffffffffffffffffffffffff161480156126b657507f000000000000000000000000000000000000000000000000000000000000000046145b156126e3577f000000000000000000000000000000000000000000000000000000000000000090506126ee565b6126eb612866565b90505b90565b5f6040517f190100000000000000000000000000000000000000000000000000000000000081528360028201528260228201526042812091505092915050565b5f805f7f7fffffffffffffffffffffffffffffff5d576e7357a4501ddfe92f46681b20a0845f1c111561276d575f60038592509250925061280e565b5f6001888888886040515f815260200160405260405161279094939291906138d3565b6020604051602081039080840390855afa1580156127b0573d5f803e3d5ffd5b5050506020604051035190505f73ffffffffffffffffffffffffffffffffffffffff168173ffffffffffffffffffffffffffffffffffffffff1603612801575f60015f801b9350935093505061280e565b805f805f1b935093509350505b9450945094915050565b5f8060ff835f1c169050601f81111561285d576040517fb3512b0c00000000000000000000000000000000000000000000000000000000815260040160405180910390fd5b80915050919050565b5f7f8b73c3c69bb8fe3d512ecc4cf759cc79239f7b179b0ffacaa9a75d522b39400f7f00000000000000000000000000000000000000000000000000000000000000007f000000000000000000000000000000000000000000000000000000000000000046306040516020016128e0959493929190613916565b60405160208183030381529060405280519060200120905090565b5f604051905090565b5f80fd5b5f80fd5b5f7fffffffff0000000000000000000000000000000000000000000000000000000082169050919050565b6129408161290c565b811461294a575f80fd5b50565b5f8135905061295b81612937565b92915050565b5f6020828403121561297657612975612904565b5b5f6129838482850161294d565b91505092915050565b5f8115159050919050565b6129a08161298c565b82525050565b5f6020820190506129b95f830184612997565b92915050565b5f81519050919050565b5f82825260208201905092915050565b5f5b838110156129f65780820151818401526020810190506129db565b5f8484015250505050565b5f601f19601f8301169050919050565b5f612a1b826129bf565b612a2581856129c9565b9350612a358185602086016129d9565b612a3e81612a01565b840191505092915050565b5f6020820190508181035f830152612a618184612a11565b905092915050565b5f819050919050565b612a7b81612a69565b8114612a85575f80fd5b50565b5f81359050612a9681612a72565b92915050565b5f60208284031215612ab157612ab0612904565b5b5f612abe84828501612a88565b91505092915050565b5f73ffffffffffffffffffffffffffffffffffffffff82169050919050565b5f612af082612ac7565b9050919050565b612b0081612ae6565b82525050565b5f602082019050612b195f830184612af7565b92915050565b612b2881612ae6565b8114612b32575f80fd5b50565b5f81359050612b4381612b1f565b92915050565b5f8060408385031215612b5f57612b5e612904565b5b5f612b6c85828601612b35565b9250506020612b7d85828601612a88565b9150509250929050565b5f67ffffffffffffffff82169050919050565b612ba381612b87565b82525050565b5f602082019050612bbc5f830184612b9a565b92915050565b5f805f60608486031215612bd957612bd8612904565b5b5f612be686828701612b35565b9350506020612bf786828701612b35565b9250506040612c0886828701612a88565b9150509250925092565b5f60208284031215612c2757612c26612904565b5b5f612c3484828501612b35565b91505092915050565b612c4681612a69565b82525050565b5f602082019050612c5f5f830184612c3d565b92915050565b5f819050919050565b612c7781612c65565b82525050565b5f602082019050612c905f830184612c6e565b92915050565b5f7fff0000000000000000000000000000000000000000000000000000000000000082169050919050565b612cca81612c96565b82525050565b5f81519050919050565b5f82825260208201905092915050565b5f819050602082019050919050565b612d0281612a69565b82525050565b5f612d138383612cf9565b60208301905092915050565b5f602082019050919050565b5f612d3582612cd0565b612d3f8185612cda565b9350612d4a83612cea565b805f5b83811015612d7a578151612d618882612d08565b9750612d6c83612d1f565b925050600181019050612d4d565b5085935050505092915050565b5f60e082019050612d9a5f83018a612cc1565b8181036020830152612dac8189612a11565b90508181036040830152612dc08188612a11565b9050612dcf6060830187612c3d565b612ddc6080830186612af7565b612de960a0830185612c6e565b81810360c0830152612dfb8184612d2b565b905098975050505050505050565b612e128161298c565b8114612e1c575f80fd5b50565b5f81359050612e2d81612e09565b92915050565b5f8060408385031215612e4957612e48612904565b5b5f612e5685828601612b35565b9250506020612e6785828601612e1f565b9150509250929050565b5f6bffffffffffffffffffffffff82169050919050565b612e9181612e71565b8114612e9b575f80fd5b50565b5f81359050612eac81612e88565b92915050565b5f805f60608486031215612ec957612ec8612904565b5b5f612ed686828701612a88565b9350506020612ee786828701612b35565b9250506040612ef886828701612e9e565b9150509250925092565b5f80fd5b5f80fd5b7f4e487b71000000000000000000000000000000000000000000000000000000005f52604160045260245ffd5b612f4082612a01565b810181811067ffffffffffffffff82111715612f5f57612f5e612f0a565b5b80604052505050565b5f612f716128fb565b9050612f7d8282612f37565b919050565b5f67ffffffffffffffff821115612f9c57612f9b612f0a565b5b612fa582612a01565b9050602081019050919050565b828183375f83830152505050565b5f612fd2612fcd84612f82565b612f68565b905082815260208101848484011115612fee57612fed612f06565b5b612ff9848285612fb2565b509392505050565b5f82601f83011261301557613014612f02565b5b8135613025848260208601612fc0565b91505092915050565b5f805f806080858703121561304657613045612904565b5b5f61305387828801612b35565b945050602061306487828801612b35565b935050604061307587828801612a88565b925050606085013567ffffffffffffffff81111561309657613095612908565b5b6130a287828801613001565b91505092959194509250565b5f80fd5b5f80fd5b5f8083601f8401126130cb576130ca612f02565b5b8235905067ffffffffffffffff8111156130e8576130e76130ae565b5b602083019150836001820283011115613104576131036130b2565b5b9250929050565b5f805f805f6080868803121561312457613123612904565b5b5f61313188828901612a88565b955050602061314288828901612b35565b945050604061315388828901612e9e565b935050606086013567ffffffffffffffff81111561317457613173612908565b5b613180888289016130b6565b92509250509295509295909350565b5f80604083850312156131a5576131a4612904565b5b5f6131b285828601612b35565b92505060206131c385828601612b35565b9150509250929050565b7f4e487b71000000000000000000000000000000000000000000000000000000005f52602260045260245ffd5b5f600282049050600182168061321157607f821691505b602082108103613224576132236131cd565b5b50919050565b5f60608201905061323d5f830186612af7565b61324a6020830185612c3d565b6132576040830184612af7565b949350505050565b7f4e487b71000000000000000000000000000000000000000000000000000000005f52603260045260245ffd5b7f43616c6c6572206973206e6f7420746865207661756c74206f776e65720000005f82015250565b5f6132c0601d836129c9565b91506132cb8261328c565b602082019050919050565b5f6020820190508181035f8301526132ed816132b4565b9050919050565b7f576974686472617720616d6f756e74206d7573742062652067726561746572205f8201527f7468616e207a65726f0000000000000000000000000000000000000000000000602082015250565b5f61334e6029836129c9565b9150613359826132f4565b604082019050919050565b5f6020820190508181035f83015261337b81613342565b9050919050565b7f4e487b71000000000000000000000000000000000000000000000000000000005f52601160045260245ffd5b5f6133b982612e71565b91506133c483612e71565b925082820390506bffffffffffffffffffffffff8111156133e8576133e7613382565b5b92915050565b5f819050919050565b5f61341161340c61340784612e71565b6133ee565b612a69565b9050919050565b613421816133f7565b82525050565b5f60208201905061343a5f830184613418565b92915050565b5f81905092915050565b50565b5f6134585f83613440565b91506134638261344a565b5f82019050919050565b5f6134778261344d565b9150819050919050565b7f5769746864726177616c206661696c65640000000000000000000000000000005f82015250565b5f6134b56011836129c9565b91506134c082613481565b602082019050919050565b5f6020820190508181035f8301526134e2816134a9565b9050919050565b7f4465706f73697420616d6f756e74206d757374206265206772656174657220745f8201527f68616e207a65726f000000000000000000000000000000000000000000000000602082015250565b5f6135436028836129c9565b915061354e826134e9565b604082019050919050565b5f6020820190508181035f83015261357081613537565b9050919050565b5f61358182612e71565b915061358c83612e71565b925082820190506bffffffffffffffffffffffff8111156135b0576135af613382565b5b92915050565b5f81905092915050565b5f6135ca826129bf565b6135d481856135b6565b93506135e48185602086016129d9565b80840191505092915050565b5f6135fb82856135c0565b915061360782846135c0565b91508190509392505050565b7f496e76616c6964207369676e61747572650000000000000000000000000000005f82015250565b5f6136476011836129c9565b915061365282613613565b602082019050919050565b5f6020820190508181035f8301526136748161363b565b9050919050565b5f61368582612b87565b915067ffffffffffffffff820361369f5761369e613382565b5b600182019050919050565b5f819050919050565b5f60ff82169050919050565b5f6136d96136d46136cf846136aa565b6133ee565b6136b3565b9050919050565b6136e9816136bf565b82525050565b5f6040820190506137025f8301856136e0565b61370f6020830184612c3d565b9392505050565b5f81519050919050565b5f82825260208201905092915050565b5f61373a82613716565b6137448185613720565b93506137548185602086016129d9565b61375d81612a01565b840191505092915050565b5f60808201905061377b5f830187612af7565b6137886020830186612af7565b6137956040830185612c3d565b81810360608301526137a78184613730565b905095945050505050565b5f815190506137c081612937565b92915050565b5f602082840312156137db576137da612904565b5b5f6137e8848285016137b2565b91505092915050565b7f4e487b71000000000000000000000000000000000000000000000000000000005f52601260045260245ffd5b61382781612e71565b82525050565b5f6080820190506138405f830187612c6e565b61384d6020830186612c3d565b61385a604083018561381e565b6138676060830184612b9a565b95945050505050565b5f6040820190506138835f830185612af7565b6138906020830184612c3d565b9392505050565b7f4e487b71000000000000000000000000000000000000000000000000000000005f52602160045260245ffd5b6138cd816136b3565b82525050565b5f6080820190506138e65f830187612c6e565b6138f360208301866138c4565b6139006040830185612c6e565b61390d6060830184612c6e565b95945050505050565b5f60a0820190506139295f830188612c6e565b6139366020830187612c6e565b6139436040830186612c6e565b6139506060830185612c3d565b61395d6080830184612af7565b969550505050505056fea2646970667358221220dfc455e71d1ba6cea17f4c1c037f99bdca5af362906ba9031521752bfd67b03664736f6c63430008180033","linkReferences":{}},"methodIdentifiers":{"SALT()":"ba9a91a5","VERSION()":"ffa1ad74","WITHDRAW_TYPEHASH()":"76c5d758","approve(address,uint256)":"095ea7b3","balanceOf(address)":"70a08231","balanceOfVault(uint256)":"f741e56f","createVault(address)":"b4bd6f46","deposit(uint256)":"b6b55f25","eip712Domain()":"84b0196e","getApproved(uint256)":"081812fc","isApprovedForAll(address,address)":"e985e9c5","name()":"06fdde03","nonces(uint256)":"141a468c","ownerOf(uint256)":"6352211e","safeTransferFrom(address,address,uint256)":"42842e0e","safeTransferFrom(address,address,uint256,bytes)":"b88d4fde","setApprovalForAll(address,bool)":"a22cb465","supportsInterface(bytes4)":"01ffc9a7","symbol()":"95d89b41","tokenURI(uint256)":"c87b56dd","transferFrom(address,address,uint256)":"23b872dd","withdraw(uint256,address,uint96)":"a93ee5ae","withdrawWithSignature(uint256,address,uint96,bytes)":"e2e91a43"},"id":47}